:020000040801F1
:10000000F80900204501010895190108591801084F
:1000100091190108210A0108832401080000000049
:10002000000000000000000000000000651D010845
:100030004D0C0108000000000D1B0108611F0108A4
:100040005F0101085F0101085F0101085F0101080C
:100050005F0101085F0101085F0101085F010108FC
:100060005F0101085F0101085F0101085F010108EC
:100070005F0101085F0101085F0101085F010108DC
:100080005F0101085F0101085F0101085F010108CC
:100090005F0101085F0101085F0101085F010108BC
:1000A0005F0101085F0101085F0101085F010108AC
:1000B000452001085F0101085F0101085F01010897
:1000C0005F0101085F0101085F0101085F0101088C
:1000D0005F01010809220108AD2201085F01010842
:1000E0005F0101085F0101085F0101085F0101086C
:1000F0005F0101085F0101085F0101085F0101085C
:100100005F0101085F0101085F0101085F0101084B
:100110005F0101085F0101085F0101085F0101083B
:100120005F0101085F0101085F0101085F0101082B
:10013000DFF80CD000F094F800480047432F010886
:10014000F80900200648804706480047FEE7FEE71A
:10015000FEE7FEE7FEE7FEE7FEE7FEE7FEE7FEE777
:10016000E51F01083101010840EA01039B0703D0A4
:1001700009E008C9121F08C0042AFAD203E011F8E6
:10018000013B00F8013B521EF9D27047D2B201E0A8
:1001900000F8012B491EFBD270470022F6E710B58C
:1001A00013460A4604461946FFF7F0FF204610BDE5
:1001B00030B505462A460B4612F8010B13F8014BE1
:1001C00008B1A042F8D01CB1002802D06D1CF1E7A4
:1001D000284630BD10B5044604E00B7800F8013B1A
:1001E00003B1491C521EF8D2204610BD034611F837
:1001F000012B00F8012B002AF9D1184670472DE990
:10020000F05F0546002092469B468846064681469A
:1002100040241BE0284641464746224600F041F86C
:1002200053465A46C01A914110D3114618462246E9
:1002300000F028F82D1A67EB01084F4622460120EE
:10024000002100F01FF817EB00094E41201EA4F119
:100250000104DFDC484631462A464346BDE8F09FAC
:10026000064C074D06E0E06840F0010394E8070003
:1002700098471034AC42F6D3FFF75EFFFC2F01081D
:100280001C300108202A04DB203A00FA02F1002089
:1002900070479140C2F1200320FA03F319439040C4
:1002A0007047202A04DB203A21FA02F0002170472F
:1002B00021FA02F3D040C2F12002914008431946CE
:1002C0007047000010B501F04FFE00F073FC00F025
:1002D000BDFF00F0E1FF01F025FE0120014908709B
:1002E00010BD000030000020F148F249086002F023
:1002F000DDF8F1A002F0EAF8F4A002F0E7F8F94B1B
:10030000F94AFA49FA4800F02DFD44E0F9A002F05C
:10031000DDF84FF47A7000F09AFC01F0A5F803289C
:1003200039D10120F7490870002001F039FD47213B
:10033000F54800F053FD00F075FBF4A002F0C6F89C
:1003400001F098F8F9A002F0C1F84FF47A7000F0CB
:100350007EFCFDA002F0BAF8642000F078FC02F008
:10036000BFFCFDA002F0B2F8642000F070FC02F0C7
:10037000D1FC00F0A7FF4FF47A7000F068FC4FF456
:100380007A7000F064FC00F07FFF41F2883000F0EA
:100390005EFC01F07FFDD6480078FF28B6D0F1A0C2
:1003A00002F094F80F22D249F548FFF7DDFE002055
:1003B000F349C873F3A002F089F8142000F047FC59
:1003C000CA48007840B9F148C849D1F80110016025
:1003D0000020EE49087108E0EC48C4490A68026050
:1003E000097901710020E9494871E849E8A002F063
:1003F0006DF8BD4801F0B8FCE9A002F067F800F024
:100400001DFF4FF4FA6000F022FC4FF4FA6000F098
:100410001EFCE7A002F05AF800F02EFF4FF4FA603D
:1004200000F015FCE7A002F051F800F02DFF00F0FD
:1004300049FF40F6C41000F00AFCE6A002F046F8BE
:1004400000F022FF40F6C41000F001FCE7A002F02B
:100450003DF827E0EBA002F039F8F14802F036F859
:100460004FF47A7000F0F3FBEE480078401CED4941
:10047000087008460078082814DB00F023FF4FF4CA
:100480007A7000F0E4FB4FF47A7000F0E0FB00F0CB
:10049000FBFE41F2883000F0DAFB012002F049F85F
:1004A00001F0D0FA02F0B6FC0028D3D1DEA002F0B1
:1004B0000DF82CE0E4480078401CC0B2E249087016
:1004C000142820DDE1480078401CE0490870E0A0D5
:1004D00001F0FCFFDD4800780C2814DB00F0F2FE90
:1004E0004FF47A7000F0B3FB4FF47A7000F0AFFB7A
:1004F00000F0CAFE41F2883000F0A9FB012002F0B2
:1005000018F801F09FFA4FF47A7000F0A0FB01F0A8
:100510002BFA0028CED102F0E3FB642000F097FB19
:1005200002F0F8FBD5A001F0D1FF4FF4FA6000F023
:100530008EFB02F06DFBB8B1D6A001F0C7FF00F052
:10054000C1FE4FF47A7000F082FB4FF47A7000F035
:100550007EFB00F099FE41F2883000F078FB01202C
:1005600001F0E7FF01F06EFAD6A001F0AFFF874A75
:100570008349DDA002F0F4FB002841D0DCA001F0AB
:10058000A5FF4FF47A7000F062FBE4A001F09EFF3B
:10059000642000F05CFB02F0A3FBE4A001F096FFF6
:1005A000642000F054FB02F0B5FB28E0E2A001F06B
:1005B0008DFF4FF47A7000F04AFB00F055FF0328DE
:1005C0001DD1002001F0ECFB47214F4800F006FC54
:1005D00000F028FAE1A001F079FF00F073FE4FF47B
:1005E0007A7000F034FB4FF47A7000F030FB00F0CA
:1005F0004BFE41F2883000F02AFB01F04BFCD5E7BE
:1006000000F042FFDAA001F061FF02F039FADDA04C
:1006100001F05CFF00221146102001F08DF84FF42C
:100620007A7000F014FB02F02BFA01F0B1FD00200B
:1006300034490870E7E100F017FF0028FAD000F015
:1006400013FF012808D1002001F0AAFBD5A001F07A
:100650003DFF00F07DFFD6E100F006FF022808D143
:10066000002001F09DFB00221146102001F064F8EB
:10067000C9E100F0F9FE032819D1012021490870D1
:10068000002001F08DFB47211F4800F0A7FB00F080
:10069000C9F900F0EFFE25A001F018FF4FF47A70C1
:1006A00000F0D5FA00F00EFE4FF47A7088E195E183
:1006B0000000010808ED00E00D0A20404020D6D0DF
:1006C000C0B3D0A1CDF8B9D8200000000D0A204059
:1006D00040205265616420466C61736820436F6EF0
:1006E00066696700E203002025000020200000204A
:1006F000D30300200D0A20C7EBC5E4D6C3B2CECA8F
:10070000FD200000300000207F0100200D0A20C5E0
:10071000E4D6C3B2CECAFDB3C9B9A6202020C9E829
:10072000B1B8D6D8C6F420720A0000000D0A20B86D
:10073000FCD0C2464C415348202020C9E8B1B8D66D
:10074000D8C6F420720A00000A4950C1B4BDD3B61D
:10075000CFBFAA0A000000000AB9D8B1D5B3A1BE24
:10076000B00A00000D0A20B2CECAFDC5E4D6C3CD42
:10077000EAB3C9200D0A206970203D200000000066
:10078000700000200D0A20257320000001000020C9
:100790000D0A20706F7274203D2025730000000048
:1007A0000D0A20404020C6F4B6AF475052532000F7
:1007B0000D0A20B4F2BFAA47505253B5E7D4B40D86
:1007C0000A0000000D0A2047505253C8EDC6F0B68B
:1007D000AF0D0A000D0A2020B5C8B4FD4750525392
:1007E000C8EDC6F4B6AF0D0A000000000D0A475070
:1007F0005253C6F4B6AFCDEAB1CF2D2D2D2D2D2DF0
:100800000D0A00000D0AC4A3BFE9CFECD3A6B2E2E3
:10081000CAD4B2BBD5FDB3A3A3A1A3A10D0A000006
:10082000B82F0108070000200D0AD5FDD4DAB5C89D
:10083000B4FD47534DC4A3BFE9B3F5CABCBBAF2E4B
:100840002E2E0D0A000000000000002008000020ED
:100850000D0ABCECB2E2B2BBB5BDB5E7BBB0BFA8F8
:10086000A3ACC7EBB6CFB5E7B2A2D6D8D0C2BDD342
:10087000C8EBB5E7BBB0BFA80D0A00000AB3F5CAC4
:10088000BCBBAF47505253B9A4D7F7BBB7BEB32ECA
:100890002E2E0A000DB3F5CABCBBAF47505253CA47
:1008A000A7B0DCA3ACC7EBD6D8D0C2B8F8C4A3BFFE
:1008B000E9C9CFB5E7B2A2B8B4CEBBBFAAB7A2B060
:1008C000E50A00000AB3A2CAD4BDA8C1A25443508D
:1008D000C1B4BDD3A3ACC7EBC4CDD0C4B5C8B4FDBF
:1008E0002E2E2E0A000000003230303000000000B2
:1008F0000D0A20544350C1B4BDD3CAA7B0DCA3AC89
:10090000C7EBBCECB2E2D5FDC8B7C9E8D6C3B8F7AF
:10091000B8F6C4A3BFE90D0A000000000A20495040
:10092000C1B4BDD3B6CFBFAA0A0000000A20B9D80F
:10093000B1D5B3A1BEB00A000A20C7EBD6D8D0C249
:10094000C6F4B6AFC9E8B1B820BBF220BCECB2E93E
:10095000206970C9E8D6C30A000000000A20D0DE72
:10096000B8C4CDEAB3C920D6D8C6F40A0000000046
:100970000D0A20C1ACBDD3B3C9B9A62E2E2E2E0AA6
:10098000000000000D0AC1ACBDD3B3C9B9A62CB399
:10099000A2CAD4B7A2CBCDD0C4CCF8B0FC2E2E2E98
:1009A0000A0000000D0A20BDD3CADCB7FECEF1C696
:1009B000F7D6B8C1EE2020BFAACABCB4A6C0ED00CD
:1009C00000F045F94FF47A7000F041F900F05CFC5A
:1009D00041F2883000F03BF901F05CFA00F044FD90
:1009E000042810D1012008490870002001F0D8F92E
:1009F00006A001F06BFD00221146502000F09CFE85
:100A000000200149087016E6300000200D0A20B7CA
:100A1000A2CBCDB2C9BCAFC6F7CAFDBEDDB0FC00EB
:100A200000BFFEE710B5FE210348FFF7B6FB00202C
:100A30000249087010BD00007F0100201000002056
:100A400070B58AB006460C4615460021084600F0EF
:100A500085F8102D01DA0AB070BD2E208DF81B002C
:100A60008DF81F008DF8230020788DF8180060782D
:100A70008DF81900A0788DF81A00E0788DF81C0028
:100A800020798DF81D0060798DF81E00A0798DF811
:100A90002000E0798DF82100207A8DF82200607A1C
:100AA0008DF82400A07A8DF82500E07A8DF82600D4
:100AB00000208DF82700102D0DD1E07BA17BCDE922
:100AC0000010637B227B1FA104A801F00FFD002012
:100AD0008DF814000EE0207CE17BA27BCDE90021A3
:100AE0000290637B227B1AA104A801F0FFFC002086
:100AF0008DF8150004A906A800F05CFA4FF47A708E
:100B000000F0A5F802F0ECF8642000F0A0F802F084
:100B100001F941F2883000F09AF800F0D3FB4FF46D
:100B20007A7000F094F84FF47A7000F090F800F0CA
:100B3000ABFB41F2883000F08AF8012001F0FEFCA6
:100B400000F092FF25632563256325630000000004
:100B500025632563256325632563000000B587B001
:100B6000012013498873002008710E21104841713B
:100B70000F22014601A8FFF7F7FA01208DF81300B4
:100B8000FF208DF814008DF81500FA208DF816005E
:100B90001F208DF81700F1208DF81800AF208DF878
:100BA0001900162101A800F077FD07B000BD000074
:100BB000C403002000B585B000F0EDFE01218803DC
:100BC00000F0B6FF0121052000F0B2FF4FF40070E5
:100BD000ADF8100018208DF8130003208DF81200D6
:100BE00004A9184800F088FA4FF48060ADF81000AE
:100BF00004208DF8130004A9124800F07DFA4FF488
:100C0000E13000900020ADF80400ADF80600ADF82A
:100C10000800ADF80C000C20ADF80A0069460A483F
:100C200001F0BAFB012240F22551074801F08EFB8A
:100C30000121054801F047FBE021034801F03AFBA0
:100C400005B000BD0008014000380140704701B503
:100C500003E04FF47A7000F007F80098411E00910D
:100C60000028F6D108BD000001B5084900980860C9
:100C70004FF0E020006940F001004FF0E0210861F2
:100C800000BF024800680028FBD108BD0C0000200E
:100C900030B5044604254FF4302000F02FF9054606
:100CA000042D17D10C48006940F002000A49086180
:100CB00008464461006940F0400008614FF430206C
:100CC00000F01CF905460448006941F6FD71084032
:100CD00001490861284630BD0020024004200B492C
:100CE000C96801F0010109B101200EE00749C96896
:100CF00001F0040109B1022007E00449C96801F0CC
:100D0000100109B1032000E00420704700200240D8
:100D10000348006940F08000014908617047000005
:100D20000020024070B504460D460426F00200F093
:100D3000E5F80646042E11D10948006940F001008B
:100D4000074908612580F00200F0D8F806460448FB
:100D5000006941F6FE71084001490861304670BDE6
:100D600000200240F0B599B007460C4615461E46D5
:100D700018220DA90E4800F020F830220DA901A874
:100D8000FFF7F2F90F2201A93846FFF7EDF9DDF878
:100D9000130020609DF817002071069828600798BE
:100DA0006860142208A93046FFF7DEF919B0F0BDDB
:100DB00000F0000801460888704730B503460C462D
:100DC0001546002207E003EB4200FFF7F3FF24F88B
:100DD0001200501C82B2AA42F5DB30BD30B58DB096
:100DE00004460D462E220F2109A8FFF7CFF9A0785F
:100DF0008DF82400E0788DF8250020798DF8260004
:100E000060798DF82800A0798DF82900E0798DF8B7
:100E10002A00207A8DF82C00607A8DF82D00A07AB7
:100E20008DF82E00E07A8DF83000207B8DF83100AF
:100E3000607B8DF83200A07B8DF81C00E07B8DF884
:100E40001D00207C8DF81E00607C8DF81F0094F83A
:100E500044008DF82000D4F812000590D4F8160054
:100E60000690142204F11A016846FFF77DF994F800
:100E70004600103808281FD2DFE800F004050613EA
:100E8000181C1E1D18E017E00DA001F01FFB6B469B
:100E900005AA07A909A800F045F80DA001F016FB66
:100EA0000AE007A909A800F085F805E005A800F008
:100EB00061F801E000E000BF00BF0DB030BD0000F0
:100EC0000D0A2035353535353535353535000000D9
:100ED0000D0A20363636363636363636363636361D
:100EE000000000000248034948600348486070471A
:100EF0002301674500200240AB89EFCD00B50246D3
:100F00000423FFF7EBFE034603E0FFF7E7FE03468B
:100F1000521E012B01D1002AF7D102B90523184630
:100F200000BD0000F0B599B004460D4616461F46B8
:100F30000F22214601A8FFF717F92868CDF8130002
:100F400028798DF817003068069070680790142291
:100F5000394608A8FFF708F9302201A90DA8FFF7C4
:100F600003F918220DA9024800F04CF819B0F0BDA1
:100F700000F0000810B598B0044618220CA90C48DF
:100F8000FFF71BFF30220CA96846FFF7EDF8206839
:100F9000059060680690302269460CA8FFF7E4F8D7
:100FA00018220CA9024800F02DF818B010BD00005E
:100FB00000F0000830B599B004460D4618220DA97E
:100FC0000F48FFF7FAFE30220DA901A8FFF7CCF871
:100FD0000F22214601A8FFF7C7F82868CDF81300B3
:100FE00028798DF81700302201A90DA8FFF7BCF869
:100FF00018220DA9024800F005F819B030BD000014
:1010000000F000082DE9F047054688461646B5F180
:10101000006F04D305EB46001049884201D3BDE8B8
:10102000F087FFF75FFFA5F100694FEAD9274FF07E
:10103000006000EBC72A5046FFF72AFE002407E0B5
:1010400038F8141005EB4400FFF76CFE601C84B206
:10105000B442F5DBFFF75CFE00BFE0E700000808E4
:101060002DE9F04387B081460F461446A4F10608E7
:10107000404601F06BFF0646A21FB91D3046FFF740
:1010800073F8002505E0715D19A001F01FFA681CD6
:1010900085B2A01FA842F6DC022016498873002002
:1010A00008710E21134841710F22014601A8FFF774
:1010B0005BF801208DF81300FF208DF814008DF8E7
:1010C0001500FA208DF816001F208DF81700F1206A
:1010D0008DF81800AF208DF81900162101A800F036
:1010E000DBFA304601F0F2FC07B0BDE8F083000007
:1010F00025630000C40300202DE9F04102460025CD
:101100000026002000230024002791F803C00CF0E3
:101110000F0591F803C00CF0100CBCF1000F03D0C8
:1011200091F802C04CEA050591F800C0BCF1000F2F
:1011300031D0146800202BE04FF0010C0CFA00F3C2
:10114000B1F800C00CEA03069E4220D183004FF0A4
:101150000F0C0CFA03F7BC4305FA03FC4CEA040439
:1011600091F803C0BCF1280F06D14FF0010C0CFA26
:1011700000FCC2F814C00AE091F803C0BCF1480FAB
:1011800005D14FF0010C0CFA00FCC2F810C0401C55
:101190000828D1D31460B1F800C0BCF1FF0F34DDD2
:1011A000546800202EE000F1080C4FF0010808FA06
:1011B0000CF3B1F800C00CEA03069E4221D1830073
:1011C0004FF00F0C0CFA03F7BC4305FA03FC4CEA92
:1011D000040491F803C0BCF1280F05D100F1080CFC
:1011E00008FA0CF8C2F8148091F803C0BCF1480F5B
:1011F00007D100F1080C4FF0010808FA0CF8C2F80A
:101200001080401C0828CED35460BDE8F0814161B5
:1012100070470161704708B54FF4E06000F008FCCA
:1012200026208DF8000001208DF801008DF80200C5
:101230008DF80300684600F0C3FB08BD10B501211E
:101240000148FFF7E4FF10BD0008014008B5012187
:10125000042000F06DFC0120ADF8000010208DF896
:10126000030003208DF8020069460248FFF744FF9F
:1012700008BD00000008014010B501210148FFF73A
:10128000C8FF10BD0008014010B502210148FFF75A
:10129000BEFF10BD0008014008B50121042000F088
:1012A00047FC0220ADF8000010208DF80300032059
:1012B0008DF8020069460248FFF71EFF08BD0000D6
:1012C0000008014010B502210148FFF7A2FF10BD40
:1012D0000008014000B585B00121042000F028FC81
:1012E0000121480400F014FC0420ADF8100018207F
:1012F0008DF8130003208DF8120004A91648FFF79B
:10130000FBFE0820ADF8100004208DF8130004A99E
:101310001148FFF7F1FE4FF4E13000900020ADF8E6
:101320000400ADF80600ADF80800ADF80C000C2084
:10133000ADF80A006946094801F02EF8FFF76BFF87
:10134000012240F22551054801F000F8012103482F
:1013500000F0B9FF05B000BD0008014000440040A6
:101360000FB430B585B009A8009073E008980078F4
:101370005C281CD10898401C089000786E2809D081
:1013800072280FD10D21374801F077F80898401CDA
:1013900008900BE00A21334801F06FF80898401CD0
:1013A000089003E00898401C089000BF4BE00898A4
:1013B0000078252840D10898401C089000786428BF
:1013C00018D0732833D1009810C800900BE0217812
:1013D000244801F052F800BF8021224800F07FFF2E
:1013E0000028F9D0641C20780028F0D10898401C0F
:1013F000089020E0009820C800900A2201A9284601
:1014000001F06EFD01AC0BE02178164801F035F8D3
:1014100000BF8021134800F062FF0028F9D0641C4F
:1014200020780028F0D10898401C089003E0089824
:10143000401C089000BF06E0089810F8011B0890B7
:10144000084801F01AF800BF8021064800F047FF65
:101450000028F9D008980078002887D105B030BC62
:101460005DF814FB0044004001480078704700001C
:101470000900002010B54FF400710248FFF7C9FEC3
:1014800010BD00000010014010B54FF4007102487B
:10149000FFF7BDFE10BD00000010014070B506460C
:1014A0000D462A4631462648FEF75EFE2C4616E0DB
:1014B000E01E2349085CFA280FD1A01E085CF12821
:1014C0000BD1601E085C1F2807D10846005DAF28BD
:1014D00003D1E01E1B49088003E0601E84B2002C8B
:1014E000E6DC00BF1748008818B9A54201D10220E8
:1014F00070BD134913480088001D085C124908801C
:10150000084600884FF6FF7101EA00200E49088066
:101510000B490C480088401D085C0B4909880844A9
:101520000949088007480088291A074800880830B8
:10153000814201D00320DBE7044805800120D7E782
:10154000C502002014000020160000201200002018
:1015500010B5B4B036A000F0B9FF01203E490870C4
:101560003E493F480088801D084401683291406828
:1015700033903A493A4800880E300C5C394800886C
:10158000A0F10D020B46364800880F301918684646
:10159000FEF7EAFDA12C26D006DC012C09D0022C96
:1015A00010D0042C3AD116E0A22C25D0A42C35D191
:1015B0002BE02C4800880D3882B2694632A8FFF72C
:1015C0003FFA2FE0274800880D3882B2694632A8DA
:1015D000FFF746FD26E0234800880D3882B26946B1
:1015E00032A800F05DFB1F4800880D3882B26946C2
:1015F00032A800F055FC15E01A4800880D3882B278
:10160000694632A800F00EFB0CE0164800880D3841
:1016100082B2694632A800F039FA03E012A000F065
:1016200055FF00BF00BF00200B49087034B010BD4B
:101630000D0A2047736D5F4465616C776974685368
:1016400065727665724E657450726F746F636F6CFD
:10165000446174612020000030000020C502002099
:1016600014000020160000200D0A2047736D5F440F
:1016700065616C776974685365727665724E6574DE
:1016800050726F746F636F6C4461746120CEB4B636
:10169000A8D2E5D6B8C1EE00F8B505460E461A2028
:1016A0000090002701F0ECF94FF4FA721BA11CA086
:1016B00001F03EFA38BB00240CE0295D1B4800F025
:1016C000DCFE00BF8021194800F009FE0028F9D097
:1016D000601CC4B2B442F0DB01F0D2F964220021F4
:1016E000684601F025FA08E0781CC0B20746C82811
:1016F00000DD09E06420FFF7AAFA0DA001F032FA3C
:101700000028F1D1F8BD00BF1B2000900022114637
:10171000684601F00DFA0120F4E700003E000000E9
:1017200041542B43495053454E440D000044004062
:1017300053454E44204F4B0070B586B004460D46CD
:101740001646502C40D00CDC042C4CD004DC012C70
:1017500043D0022C4BD145E0102C0BD0202C46D18D
:1017600031E0802C38D0A12C3ED0A22C3DD0A42C2E
:101770003DD13BE001F084F910202149887300201D
:1017800008710E211E4841710F2201466846FEF77E
:10179000EBFC01F013FA8DF80F00FF208DF810001C
:1017A0008DF81100FA208DF812001F208DF813001B
:1017B000F1208DF81400AF208DF815001621684631
:1017C000FFF76AFF18E017E00EA000F07FFE314639
:1017D000284600F043F80FE00EE031462846FFF7B8
:1017E000BDF909E008E007E006E005E004E0214675
:1017F0000CA000F06BFE00BF00BF06B070BD000083
:10180000C40300200D0A20496E7665727465724427
:101810006174615061636B46756E6374696F6E5479
:10182000797065000D0A2047736D5F53656E644ED5
:101830006574446174615061636B546F5365727673
:10184000657220CEB4B6A8D2E5D6B8C1EE20305825
:10185000253032580000000000BFFEE730B58FB0E1
:1018600004460D4601F00CF950203E4988730020D3
:10187000087132213B4841710F2201466846FEF74C
:1018800073FCFF208DF80F0001208DF8100004205C
:101890008DF8110021208DF8120000208DF8130022
:1018A0008DF814008DF815008DF816008DF81700CE
:1018B0008DF8180001208DF8190000208DF81A000D
:1018C0008DF81B008DF81C0001208DF81D000020F4
:1018D0008DF81E008DF81F008DF8200001208DF876
:1018E000210000208DF822008DF823008DF82400BF
:1018F00001208DF8250000208DF826008DF82700A6
:101900008DF828008DF829008DF82A008DF82B001D
:101910008DF82C0001208DF82D0000208DF82E0070
:101920008DF82F008DF8300001208DF83100FF2058
:101930008DF832008DF833008DF834008DF83500C5
:10194000FA208DF836001F208DF83700F1208DF831
:101950003800AF208DF839003A216846FFF79CFE29
:101960000FB030BDC403002010B500BF00BF01F0B0
:1019700087F8C82202A103A001F0DAF810BD000028
:101980004F4B000041542B434E554D0D00000000BD
:1019900000BFFEE7704708B54FF4E06000F048F87C
:1019A00025208DF8000000208DF8010001208DF821
:1019B00002008DF80300684600F002F808BD000040
:1019C00070B5002100230F22C47804B3154C24689D
:1019D00004F4E064C4F5E064210AC1F10403CA40E0
:1019E000447804FA03F184781440214309010E4C31
:1019F0000678A155047804F01F050124AC40057851
:101A00006D11AD0005F1E025C5F8004109E004784D
:101A100004F01F050124AC40044D0678761145F80A
:101A2000264070BD0CED00E000E400E080E100E045
:101A300002490143024A1160704700000000FA05A4
:101A40000CED00E00648006800F4E060054908433A
:101A5000001D03490860BFF34F8F00BFFEE7000081
:101A60000CED00E00000FA050648006800F4E060B4
:101A700005490843001D03490860BFF34F8F00BFAD
:101A8000FEE700000CED00E00000FA0570B504462A
:101A90000D46164611A000F019FDA42019498873BF
:101AA000002008710E21174841710F220146164887
:101AB000FEF75AFB01201449C873FF2008744874CC
:101AC000FA2088741F20C874F1200875AF2048756B
:101AD00016210D48FFF7E0FD70BD00000D0A204FF4
:101AE0007665725265676973746572656446756E72
:101AF0006374696F6E547970654D616E616765726C
:101B0000200D0A00C4030020C50200207047000019
:101B100029B1064AD2690243044BDA6104E0034A60
:101B2000D2698243014BDA61704700000010024025
:101B300029B1064A92690243044B9A6104E0034AC0
:101B400092698243014B9A61704700000010024085
:101B500030B500210022002400232D4D6D6805F0D2
:101B60000C0121B1042905D0082923D105E0294D14
:101B7000056022E0274D05601FE0254D6D6805F4E6
:101B80007012234D6D6805F48034022505EB9242F6
:101B90001CB9214D554305600BE01D4D6D6805F4E2
:101BA00000351DB11C4D5543056002E0194D5543EC
:101BB000056002E0174D056000BF00BF144D6D6861
:101BC00005F0F0010909154D6B5C0568DD404560C5
:101BD0000F4D6D6805F4E061090A104D6B5C4568B6
:101BE000DD4085600A4D6D6805F46051C90A0B4DF2
:101BF0006B5C4568DD40C560054D6D6805F440418E
:101C0000890B074D6B5CC568B5FBF3F5056130BD0D
:101C10000010024000127A0000093D005000002030
:101C20006000002070B504460D46164611A000F075
:101C30004DFCA22018498873002008710E21164817
:101C400041710F2201461548FEF78EFA0120134913
:101C5000C873FF2008744874FA2088741F20C87461
:101C6000F1200875AF20487516210C48FFF714FDC8
:101C700070BD00000D0A2052656769737465726556
:101C80006446756E6374696F6E547970654D616EEC
:101C900061676572200D0A00C4030020C5020020A0
:101CA0001446214622A000F011FC04202B49887321
:101CB000002008710E21294841710F220146284851
:101CC000FEF752FA01202649C873FF2008744874B1
:101CD000FA2088741F20C874F1200875AF20487559
:101CE00016211F48FFF7D8FC4FF47A70FEF7AFFFBC
:101CF00000F0F6FF6420FEF7AAFF01F00BF841F2B6
:101D00008830FEF7A4FFFFF7DDFA4FF47A70FEF794
:101D10009EFF4FF47A70FEF79AFFFFF7B5FA41F293
:101D20008830FEF794FF012000F008FCFFF79CFECE
:101D30000D0A205265737461727444657669636537
:101D400046756E74696F6E547970654D616E61672A
:101D50006572202564200D0A00000000C4030020E5
:101D6000C5020020704700000B4900220A604A604B
:101D700002680A6042684A60FA21084A1170F1213B
:101D800051701F219170AF21D170911D02680A60BE
:101D900042684A607047000018000020C403002019
:101DA00001490870704700000900002010B500F0DC
:101DB00001F810BD0CB50020019000903348006878
:101DC00040F480303149086000BF3048006800F4BA
:101DD000003000900198401C0190009818B90198BB
:101DE000B0F5A06FF1D12948006800F4003010B1BF
:101DF0000120009001E0002000900098012843D1CC
:101E00002348006840F01000214908600846006837
:101E100020F0030008600846006840F002000860F7
:101E20001A484068194948600846406848600846B2
:101E3000406840F4806048600846406820F47C10A8
:101E400048600846406840F4E8104860084600686A
:101E500040F08070086000BF0C48006800F000701F
:101E60000028F9D00948406820F00300074948607D
:101E70000846406840F00200486000BF03484068E0
:101E800000F00C000828F9D10CBD00000010024041
:101E900000200240012000F04CFBFFF7D3FD0000C2
:101EA00070B504460D46164611A000F00FFBA120A8
:101EB0001A498873002008710E21184841710F22B9
:101EC00001461748FEF750F901201549C873FF2055
:101ED00008744874FA2088741F20C874F1200875AB
:101EE000AF20487516210E48FFF7D6FB70BD0000E5
:101EF0000D0A2053706F6E736F7252656769737449
:101F00006572656446756E6374696F6E5479706549
:101F10004D616E61676572200D0A0000C4030020E8
:101F2000C502002008B501211020FFF701FE4FF483
:101F30007070ADF8000010208DF8030003208DF8BC
:101F4000020069460548FFF7D7F800F0A7FA00F04D
:101F5000B5FAFFF78FFA00F097FA08BD00100140BC
:101F600010B500F045F910BD30B51A4800681A4A9E
:101F7000B0FBF2F1B1F1807F01D301201DE021F02F
:101F80007F40401E4FF0E022506150170F22002882
:101F900007DA13071D0E114B00F00F04241F1D5507
:101FA00003E013071C0E0E4B1C5400BF00204FF023
:101FB000E022906107201061002008B100BFFEE719
:101FC0004FF0E020006920F001004FF0E0210861AF
:101FD00030BD00003C00002040420F0018ED00E042
:101FE00000E400E010B51348006840F0010011491A
:101FF000086008464068104908400E494860084695
:1020000000680E4908400B4908600846006820F443
:10201000802008600846406820F4FE0048604FF4C5
:102020001F008860FFF7C2FE4FF00060044908609F
:1020300010BD0000001002400000FFF8FFFFF6FE98
:1020400008ED00E010B50121880700F037F81448CA
:102050000068401C1249086012480068401C114981
:102060000860084600683C2809D1002008600C4937
:1020700008600D48007810B90420FFF791FE084869
:1020800000681E280BD100200549086007A000F059
:102090001DFA0548007810B90220FFF781FE10BD37
:1020A0003400002038000020300000200D0A20B746
:1020B000A2D0C4CCF8B0FC200D0A2000CA43028292
:1020C000704721B1028842F00102028004E00288D8
:1020D0004FF6FE731A40028070471AB183890B4392
:1020E000838102E083898B438381704700220288C9
:1020F0001D4B98420ED01D4B98420BD0B0F1804F33
:1021000008D01B4B984205D01A4B984202D01A4B6C
:10211000984204D14FF68F731A404B881A43174BDD
:10212000984207D0164B984204D04FF6FF431A400E
:10213000CB881A4302808B8883850B8803850A4BE2
:1021400098420BD0094B984208D00E4B984205D0CC
:102150000D4B984202D00D4B984201D10B7A038669
:102160000123838270470000002C014000340140AD
:102170000004004000080040000C00400010004037
:10218000001400400040014000440140004801406C
:102190001FB501210846FFF7BBFC42F20F70ADF8F6
:1021A000080041F61F40ADF804000020ADF80A0019
:1021B000ADF8060001A94FF08040FFF797FF1C2003
:1021C0008DF8000000208DF8010001208DF802003C
:1021D0008DF803006846FFF7F3FB012211469007D4
:1021E000FFF77BFF01218807FFF76BFF1FBD000092
:1021F0000448006820B103480068401E0149086097
:10220000704700000C00002010B540F22551234813
:1022100000F072F8002840D0204800F029F9204949
:10222000204A127888541F480078401C1D490870C5
:1022300008460078FD2801DB002008701948007866
:1022400047282ADB1748007847381549085CFF28DB
:1022500023D1144800784638085CAB281DD11148BA
:102260000078801E085C042805D00E480078801E87
:10227000085C052811D10B4800784738084A8118B6
:1022800047220948FDF770FF0020074981F8470001
:10229000044908700320FFF783FD10BD003801409A
:1022A0007F010020100000207D02002010B500F00A
:1022B00081FB10BD01F40072B2F5007F00D100BFB8
:1022C000CA430280704721B1828942F40052828160
:1022D00004E082894DF6FF731A40828170470246FE
:1022E0000020B1F5007F00D100BF13880B400BB177
:1022F000012000E00020704770B502460024002352
:102300000025002040F66A16B14200D100BFC1F39B
:10231000421501F01F03012606FA03F3012D02D135
:102320009689334006E0022D02D1168A334001E03F
:10233000968A33400C12012606FA04F416883440BB
:1023400013B10CB1012000E0002070BDF0B50346D0
:10235000002400260025002040F66A17B94200D16B
:1023600000BF1846C1F3421401F01F06012707FA07
:1023700006F5012C01D10C3004E0022C01D1103003
:1023800000E014301AB107682F43076002E00768C5
:10239000AF430760F0BD00002DE9F04786B0054669
:1023A0000E460024A24600BFA1460027B08900B116
:1023B00000BF2F462C8A4CF6FF700440F08804437F
:1023C0002C82AC894EF6F3100440B0883189084362
:1023D000718908430443AC81AC8A4FF6FF40044046
:1023E000B0890443AC8201A8FFF7B2FB1F488742C3
:1023F00002D1DDF810A001E0DDF80CA0A88900F4FE
:10240000004040B10AEBCA0000EB0A1031684900F5
:10241000B0FBF1F807E00AEBCA0000EB0A103168E4
:102420008900B0FBF1F86420B8FBF0F0040120094A
:10243000642101FB1089A88900F4004040B13220DA
:1024400000EBC900B0FBF1F000F00700044308E026
:10245000322000EB09106421B0FBF1F000F00F0016
:1024600004432C8106B0BDE8F0870000003801402D
:1024700001468888C0F308007047C1F308028280D3
:10248000704700BFFEE7000010B54FF480710248AE
:10249000FEF7BFFE10BD00000010014010B5802106
:1024A0000148FEF7B6FE10BD0010014010B58021B6
:1024B0000148FEF7ACFE10BD0010014010B54021F0
:1024C0000148FEF7A6FE10BD001001400FB4054BF9
:1024D00010B503A9044A029800F036F810BC5DF864
:1024E00014FB0000A92A0108640000200FB4084B67
:1024F00010B504A902AA039800F026F8044602A920
:10250000002000F052FA204610BC5DF814FB0000D9
:10251000AB29010802E008C8121F08C1002AFAD13D
:1025200070477047002001E001C1121F002AFBD153
:10253000704700F0010181F31388704700F001013A
:1025400081F31388704700002DE9FF4F8DB00F46CF
:102550000546002606E025280BD0DDE90F1290473E
:102560006D1C761C28780028F5D111B03046BDE8E6
:10257000F08F0024A246A1460122EC4900E004436A
:1025800015F8013F203B02FA03F00842F7D1287802
:102590002A2810D06FF02F022878A0F130010929E5
:1025A00014D80AEB8A0102EB410144F0020400EB6B
:1025B000010A6D1CF0E701CF5FEA000A03D544F47D
:1025C0000054CAF1000A44F002046D1C28782E2839
:1025D00017D115F8010F44F004042A280ED06FF02B
:1025E0002F022878A0F1300109290AD809EB8901C6
:1025F00002EB410100EB01096D1CF2E757F8049B67
:102600006D1C28786C280FD006DC4C2817D0682861
:102610000DD06A2814D104E0742810D07A280FD184
:102620000DE044F400140AE044F4801401E044F4A2
:1026300040146978814202D104F580146D1C6D1C30
:102640002A786E2A1FD00CDC632A31D004DC002AE1
:102650008BD0582A11D1A3E0642A68D0692A0CD102
:1026600065E0732A2ED004DC6F2A73D0702A04D15F
:102670009BE0752A6FD0782A6ED01046DDE90F12E4
:102680009047761C50E1C4F30250022806D003287C
:1026900009D0042801CF09D0066045E101CFF11728
:1026A000C0E9006140E101CF06803DE106703BE1F9
:1026B00017F8040B8DF8000000208DF80100EB46A0
:1026C000012003E057F804BB4FF0FF3061074FF0E3
:1026D000000102D40DE008F10101884649450FDAF6
:1026E0008045F8DB1BF808100029F4D108E008F158
:1026F000010188468142FADB1BF808100029F6D157
:10270000DDE90F23AAEB08008146214600F036F9E7
:10271000304400EB080604E0DDE90F121BF8010B62
:102720009047B8F10108F7D221464846F7E00A2160
:10273000C4F302534FF0000B0891022B04D001CFD9
:10274000C117032B09D00AE0FF1D27F00707F7E8A0
:10275000020108E032E01FE020E000B2C117042BC4
:1027600001D140B2C117031E71F1000307DA4FF027
:10277000000CD0EB0C006CEB01012D2302E02305D3
:1027800004D52B238DF82430012303E0E30701D087
:102790002023F7E7984658E00A2110E010210EE0C8
:1027A00010204FF0000B08900CE010214FF0000BB0
:1027B00044F004044FF00809089103E008214FF0A9
:1027C000000B0891C4F30253022B04D001CF002167
:1027D000032B06D006E0FF1D27F00707F7E80201EC
:1027E00003E080B2042B00D1C0B24FF000082307F1
:1027F0002BD5702A07D0DDF820C08CF0100C5CEAD5
:102800000B0C05D00EE040238DF82430012308E0A6
:1028100050EA010306D030238DF824308DF82520AE
:1028200002239846DDF820C08CF0080C5CEA0B0C03
:102830000BD150EA010301D1630706D530238DF88F
:1028400024304FF00108A9F10109582A04D038A218
:102850000B9208AA0A920BE03AA2F9E75B46089AA3
:10286000FDF7CDFC0B9B9B5C0A9A521E0A921370DB
:1028700050EA0102F2D10A98ADEB000000F1200B02
:10288000600702D524F4803401E04FF00109D945F6
:1028900002DDA9EB0B0000E0002000EB0B0141443E
:1028A0000890AAEB010AE00306D4DDE90F232146D4
:1028B000504600F063F806444FF0000908E009A90B
:1028C00011F80900DDE90F12904709F10109761CA2
:1028D000C145F4DBE0030CD5DDE90F23214650466A
:1028E00000F04CF8064404E0DDE90F123020904778
:1028F000761C0899481E08900029F5DC08E00A9823
:102900000A990078491C0A91DDE90F129047761C5C
:10291000BBF10001ABF1010BF1DC21465046DDE9D2
:102920000F2300F019F806446D1C1BE6092801006E
:102930003031323334353637383961626364656635
:1029400000000000303132333435363738394142F7
:1029500043444546000000002DE9F04104460025AF
:102960001E461746880404D405E039462020B047A7
:102970006D1C641EF9D52846BDE8F0812DE9F041B3
:10298000044600251E469046C80301D5302700E0C6
:102990002027880404D505E041463846B0476D1C21
:1029A000641EF9D52846BDE8F0810A68531C0B6007
:1029B0001070704710B528480078FF2849DA40F2B7
:1029C00025512648FFF798FC002842D02348FFF7FE
:1029D0004FFD2349204A127888541F480078401C34
:1029E0001D4908701F480078012800D110BD1A4801
:1029F000007821282DDB18480078001F1849085C52
:102A0000FA2826D114480078C01E085C1F2820D15F
:102A100011480078801E085CF1281AD10E48007811
:102A2000401E085CAF2814D10B4801780C48FEF713
:102A300035FD012808D10CA0FFF748FD0120FFF764
:102A4000AFF900F01DF804E00AA0FFF73FFD00F029
:102A500017F800BFCAE700000A0000200044004049
:102A600080000020300000200D0A20D0A3D1E9B35F
:102A7000C9B9A6000D0A20D0A3D1E9B4EDCEF30068
:102A80004FF480700021064A117005E00022411EBB
:102A900089B20846034B5A540028F7D1704700000A
:102AA0000A0000208000002070B504460D46E1B207
:102AB0000548FFF7E2FC00BF80210348FFF70FFC49
:102AC0000028F9D0204670BD0038014010B500281C
:102AD00021D0114B0022001F196803E0814203D866
:102AE0000A4649680029F9D152B11368841A9C42F8
:102AF00004D1006818441060104602E0506000E005
:102B0000186039B102680B1A934203D10B681A445A
:102B100002604968416010BD68000020014602481B
:102B200000780870014870470A00002080000020EB
:102B300070B505460C46164600BF00BFFFF7A0FF64
:102B4000294607A0FEF70CFC00BF00BF0CB900200F
:102B500070BD3046FEF77BF8204600F003F8F7E73B
:102B600025730000F8B5054600BF00BF6846FFF7B3
:102B7000D5FF074600209DF80010785400BF00BF25
:102B8000002400260EE0285D08B90020F8BDA01939
:102B9000385C295D884202D1601CC4B202E0701C1E
:102BA000C6B20024A0199DF800108842EBDB285D16
:102BB00008B90020EAE70120E8E7000030B599B045
:102BC00000256422694610A000F064F9002415E095
:102BD0001DF804002C280FD1022C0DDB601E1DF8FF
:102BE0000010A01E1DF80000303800EB800001EB43
:102BF00040003038C5B203E0601CC4B2642CE7DB8F
:102C000000BF284619B030BD41542B4353510D002D
:102C100010B500BF00BFFFF733FF4FF4FA60FEF7B7
:102C200016F8C82219A11AA0FFF782FF08B10120E7
:102C300010BDFFF725FF4FF4FA60FEF708F8C82231
:102C400012A117A0FFF774FF08B10120F0E7FFF70A
:102C500017FF4FF4FA60FDF7FAFFC8220BA117A087
:102C6000FFF766FF08B10120E2E7FFF709FF4FF425
:102C7000FA60FDF7ECFFC82204A113A0FFF758FF8C
:102C800008B10120D4E70020D2E700004F4B00003C
:102C900041542B4347434C4153533D2242220D00A4
:102CA00041542B434744434F4E543D312C2249500D
:102CB000222C22434D4E4554220D000041542B43FB
:102CC000474154543D310D0041542B434950435327
:102CD00047503D312C22434D4E4554220D000000FB
:102CE00010B500BF00BFFFF7CBFEC82204A105A0AE
:102CF000FFF71EFF08B1012010BD0020FCE7000017
:102D00004F4B000041542B434950434C4F53453DDA
:102D1000310D000010B5002400BF00BFFFF7B0FE6A
:102D2000002211460AA0FFF703FF09E0601CC0B2B1
:102D30000446322801DD012010BDC820FDF787FFC1
:102D400006A0FFF70FFF0028F0D100BFF4E7000056
:102D500041542B434950534855540D004F4B0000EC
:102D6000F0B599B004460D461646002700BF00BFD7
:102D7000224616A16846FFF7B9FB642219A16846EE
:102D8000FFF7D6FE10B1012019B0F0BDFFF778FEB5
:102D900033462A4614A16846FFF7A8FB64220021A7
:102DA0006846FFF7C5FE09E0781CC0B20746C82890
:102DB00001DD0120E8E76420FDF749FF12A0FFF7DD
:102DC000D1FE0028F0D100BFDEE7000041542B43C4
:102DD0004C504F52543D22544350222C22257322F2
:102DE0000D0000004F4B000041542B4349505354F9
:102DF0004152543D22544350222C222573222C222E
:102E00002573220D00000000434F4E4E45435420D1
:102E10004F4B000038B500BF00BFFFF731FEFEF793
:102E200059FA64220FA110A0FFF782FE08B1012019
:102E300038BD6846FFF772FE04469DF8000008B9E9
:102E40000120F5E70BA12046FDF7B2F908B10020FB
:102E5000EEE70CA12046FDF7ABF908B10020E7E74B
:102E60000120E5E74F4B000041542B43474D4D0DEA
:102E70000000000053494D434F4D5F47534D3930DB
:102E80003041000053494D434F4D5F53494D383059
:102E900030000000F8B504460D461646FFF7F0FD79
:102EA00021460EA0FEF75CFA3046FDF7D0FE6846DC
:102EB000FFF734FE074600209DF8001078549DF877
:102EC0000000642804DA39462846FDF78FF904E04B
:102ED000642239462846FDF77DF9F8BD25730000C8
:102EE000F0B503460D461646002729460A2E03D0A4
:102EF000002008702846F0BD33B9302001F8010BDE
:102F0000002008702846F6E7002B03DA2D2001F890
:102F1000010B5B4242F210720DE093FBF2F404B934
:102F200037B104F1300001F8010B04FB1233012723
:102F30000A2092FBF0F2002AEFDC002008702846FD
:102F4000D9E7FDF7BFF9FDF7CFF90000F0B50B3079
:102F5000154D20F007010024144A0FE003688B424E
:102F60000BD38B4205D95E1A43184768C3E9006743
:102F700000E04368136002C004E0021D10680028EE
:102F8000ECD12046002802D1286808B10020F0BD0D
:102F9000064A07481060074A121A22F00702C0E9E1
:102FA000002401202860D7E76C0000206800002082
:102FB000FC030020F80500200D0AC8F4C4A3BFE9F3
:102FC000CFECD3A6B2E2CAD4D2BBD6B1B2BBD5FD48
:102FD000B3A3A3ACC7EBBCECB2E9C4A3BFE9B5C4CF
:102FE000C1ACBDD3BBF2CAC7B7F1D2D1BFAAC6F438
:102FF000B5E7D4B4BFAAB9D80D0A00001C30010847
:103000000000002070000000142501088C30010829
:10301000700000208809000024250108000000003D
:1030200000000000000000000000000000000000A0
:1030300000000000313233343536373800000000EC
:103040000000000000000000000000000000000080
:10305000000000000000000000A24A040000000080
:103060000000000001020304060708090000000038
:10307000010203040102030406070809020406080A
:0C30800000000000000000000000000044
:0400000508010131BC
:00000001FF
