:020000040801F1
:10000000E80A002045010108B51601088516010817
:10001000B1160108390801086B2101080000000031
:10002000000000000000000000000000851A010828
:100030005D09010800000000091801088D1C010875
:100040005F0101085F0101085F0101085F0101080C
:100050005F0101085F0101085F0101085F010108FC
:100060005F0101085F0101085F0101085F010108EC
:100070005F0101085F0101085F0101085F010108DC
:100080005F0101085F0101085F0101085F010108CC
:100090005F0101085F0101085F0101085F010108BC
:1000A0005F0101085F0101085F0101085F010108AC
:1000B000711D01085F0101085F0101085F0101086E
:1000C0005F0101085F0101085F0101085F0101088C
:1000D0005F010108091F0108951F01085F01010860
:1000E0005F0101085F0101085F0101085F0101086C
:1000F0005F0101085F0101085F0101085F0101085C
:100100005F0101085F0101085F0101085F0101084B
:100110005F0101085F0101085F0101085F0101083B
:100120005F0101085F0101085F0101085F0101082B
:10013000DFF80CD000F080F800480047F72B0108EA
:10014000E80A00200648804706480047FEE7FEE729
:10015000FEE7FEE7FEE7FEE7FEE7FEE7FEE7FEE777
:10016000111D01083101010840EA01039B0703D07A
:1001700009E008C9121F08C0042AFAD203E011F8E6
:10018000013B00F8013B521EF9D27047D2B201E0A8
:1001900000F8012B491EFBD270470022F6E710B58C
:1001A00013460A4604461946FFF7F0FF204610BDE5
:1001B00030B505462A460B4612F8010B13F8014BE1
:1001C00008B1A042F8D01CB1002802D06D1CF1E7A4
:1001D000284630BD2DE9F05F0546002092469B463B
:1001E00088460646814640241BE02846414647464D
:1001F000224600F042F853465A46C01A914110D3A5
:1002000011461846224600F029F82D1A67EB01081E
:100210004F4622460120002100F020F817EB00098C
:100220004E41201EA4F10104DFDC484631462A4637
:100230004346BDE8F09F0000064C074D06E0E0682D
:1002400040F0010394E8070098471034AC42F6D31D
:10025000FFF772FFD42C0108F42C0108202A04DBDC
:10026000203A00FA02F1002070479140C2F12003C9
:1002700020FA03F3194390407047202A04DB203A08
:1002800021FA02F00021704721FA02F3D040C2F1B6
:1002900020029140084319467047000010B501F054
:1002A000F9FC00F00FFB00F0B1FE00F0D5FE01F00C
:1002B000CFFC01200149087010BD00005000002053
:1002C000B348B449086001F065FFB34801F0DCFBB6
:1002D000B2A001F06FFFB6A001F06CFF45F2126012
:1002E000B94948800222B94800F06CFDB8A001F07D
:1002F00061FF00F083FE4FF4FA6000F030FB4FF432
:10030000FA6000F02CFBB6A001F054FF00F094FE60
:100310004FF4FA6000F023FBB6A001F04BFF00F0B1
:1003200093FE00F0AFFE40F6C41000F018FBB5A03D
:1003300001F040FF00F088FE40F6C41000F00FFB13
:10034000B6A001F037FF27E0BAA001F033FFC048A4
:1003500001F030FF4FF47A7000F001FBBD480078E7
:10036000401CBC49087008460078082814DB00F0DF
:1003700089FE4FF47A7000F0F2FA4FF47A7000F0D0
:10038000EEFA00F061FE41F2883000F0E8FA012058
:1003900001F043FF01F0E6F902F0BCFB0028D3D1E5
:1003A000ADA001F007FF2CE0B3480078401CC0B2BC
:1003B000B1490870142820DDB0480078401CAF49CE
:1003C0000870AFA001F0F6FEAC4800780C2814DBF2
:1003D00000F058FE4FF47A7000F0C1FA4FF47A70D2
:1003E00000F0BDFA00F030FE41F2883000F0B7FABC
:1003F000012001F012FF01F0B5F94FF47A7000F01E
:10040000AEFA01F041F90028CED102F0A5FA64203D
:1004100000F0A5FA02F0FEFAA4A001F0CBFE4FF422
:10042000FA6000F09CFA02F02FFAB8B1A5A001F032
:10043000C1FE00F027FE4FF47A7000F090FA4FF4FE
:100440007A7000F08CFA00F0FFFD41F2883000F085
:1004500086FA012001F0E1FE01F084F9A5A001F087
:10046000A9FEADA2AEA1B1A002F0FAFA00282BD0ED
:10047000B0A001F09FFE4FF47A7000F070FAB8A0BF
:1004800001F098FE642000F06AFA02F065FAB8A064
:1004900001F090FE642000F062FA02F0BBFAB7A00F
:1004A00001F088FE00F0EEFD4FF47A7000F057FA8C
:1004B0004FF47A7000F053FA00F0C6FD41F2883034
:1004C00000F04DFA01F07CFB00F0BEFEB0A001F0A0
:1004D00071FE02F03BF9B3A001F06CFE4FF47A70AC
:1004E00000F03DFAB648006802F050FA00282AD021
:1004F00000F0A0FEB3A001F05DFE4FF47A7000F0B2
:100500002EFABBA001F056FE642000F028FA02F09B
:1005100023FABBA001F04EFE642000F020FA02F0A6
:1005200079FA00F0AFFD4FF47A7000F018FA4FF44A
:100530007A7000F014FA00F087FD41F2883000F084
:100540000EFA01F03DFB02F001F901F0A1FC0020E0
:10055000AE4908701BE000F067FEC0B100F064FE19
:10056000012808D1002001F0B1FAA9A001F022FE73
:1005700000F0E2FE0BE000F057FE022807D1002059
:1005800001F0A4FA00221146102000F0E5FFE2E796
:100590000000010808ED00E0090000200D0A2040DD
:1005A0004020D6D0C0B3D0A1CDF8B9D820000000EB
:1005B0000D0A204040205265616420466C617368DA
:1005C00020436F6E66696700FA01002000A00008F2
:1005D0000D0A20404020C6F4B6AF475052532000C9
:1005E0000D0A20B4F2BFAA47505253B5E7D4B40D58
:1005F0000A0000000D0A2047505253C8EDC6F0B65D
:10060000AF0D0A000D0A2020B5C8B4FD4750525363
:10061000C8EDC6F4B6AF0D0A000000000D0A475041
:100620005253C6F4B6AFCDEAB1CF2D2D2D2D2D2DC1
:100630000D0A00000D0AC4A3BFE9CFECD3A6B2E2B5
:10064000CAD4B2BBD5FDB3A3A3A1A3A10D0A0000D8
:100650006C2C0108370000200D0AD5FDD4DAB5C88E
:10066000B4FD47534DC4A3BFE9B3F5CABCBBAF2E1D
:100670002E2E0D0A00000000080000203800002087
:100680000D0ABCECB2E2B2BBB5BDB5E7BBB0BFA8CA
:10069000A3ACC7EBB6CFB5E7B2A2D6D8D0C2BDD314
:1006A000C8EBB5E7BBB0BFA80D0A00000AB3F5CA96
:1006B000BCBBAF47505253B9A4D7F7BBB7BEB32E9C
:1006C0002E2E0A000DB3F5CABCBBAF47505253CA19
:1006D000A7B0DCA3ACC7EBD6D8D0C2B8F8C4A3BFD0
:1006E000E9C9CFB5E7B2A2B8B4CEBBBFAAB7A2B032
:1006F000E50A00000AB3A2CAD4BDA8C1A25443505F
:10070000C1B4BDD3A3ACC7EBC4CDD0C4B5C8B4FD90
:100710002E2E2E0A0000000034343438360000003B
:100720003132302E32342E34392E330032303030E4
:10073000000000000D0A20544350C1B4BDD3CAA725
:10074000B0DCA3ACC7EBBCECB2E2D5FDC8B7C9E8DE
:10075000D6C3B8F7B8F6C4A3BFE90D0A000000007D
:100760000A204950C1B4BDD3B6CFBFAA0A000000C9
:100770000A20B9D8B1D5B3A1BEB00A000D0A203500
:1007800073BAF3D7D4B6AFD6D8C6F40D0A000000BA
:100790000D0A20C1ACBDD3B3C9B9A62E2E2E2E0A88
:1007A000000000000D0AC1ACBDD3B3C9B9A62CB37B
:1007B000A2CAD4B7A2CBCDCAFDBEDD2E2E2E0A0012
:1007C000040000200D0A544350B7A2CBCDCAFDBE91
:1007D000DDCAA7B0DCA3ACC7EBBCECB2E2D5FDC868
:1007E000B7C9E8D6C3B8F7B8F6C4A3BFE90D0A0085
:1007F0000A4950C1B4BDD3B6CFBFAA0A0000000059
:100800000AB9D8B1D5B3A1BEB00A0000500000208B
:100810000D0A2047736D5F4465616C776974685396
:1008200065727665724E657450726F746F636F6C2B
:10083000446174610000000000BFFEE710B5FE21B6
:100840000348FFF7AAFC00200249087010BD000011
:10085000FC0000200000002070B504460D4616463E
:100860000021084600F002F870BD000000B587B016
:10087000012013498873002008710E21104841712E
:100880000F22014601A8FFF76FFC01208DF813002D
:10089000FF208DF814008DF81500FA208DF8160051
:1008A0001F208DF81700F1208DF81800AF208DF86B
:1008B0001900162101A800F0E3FD07B000BD0000FB
:1008C0008604002000B585B000F0F5FE0121880304
:1008D00000F0ACFF0121052000F0A8FF4FF40070EC
:1008E000ADF8100018208DF8130003208DF81200C9
:1008F00004A9184800F0E0FA4FF48060ADF8100049
:1009000004208DF8130004A9124800F0D5FA4FF422
:10091000E13000900020ADF80400ADF80600ADF81D
:100920000800ADF80C000C20ADF80A0069460A4832
:1009300001F0A6FB012240F22551074801F07AFBA5
:100940000121054801F033FBE021034801F026FBBB
:1009500005B000BD0008014000380140704701B5F6
:1009600003E04FF47A7000F007F80098411E009100
:100970000028F6D108BD000001B5084900980860BC
:100980004FF0E020006940F001004FF0E0210861E5
:1009900000BF024800680028FBD108BD3C000020D1
:1009A000F0B593B004460F463E460BE0A05DAB2881
:1009B00006D1701E205CFF2802D1701EC5B203E074
:1009C000701EC6B2002EF1DA00BF29467DA001F0EC
:1009D000F1FB2E4605E0A15D7EA001F0EBFB701C53
:1009E000C6B2BE42F7DB05F10D00205CA0F130017C
:1009F00005F10C00205CA0F1300205F10B00205C39
:100A000030382E23CDE90930CDE90B2105F10A005C
:100A1000205CA0F1300105F10900205CA0F130025A
:100A200005F10800205C3038CDE90530CDE907211B
:100A3000E81D205CA0F13001A81D205CA0F130026F
:100A4000681D205C3038CDE90130CDE90321281D37
:100A5000205C30380090E81C205CA0F13003A81C1A
:100A6000205CA0F130025DA1644801F0B3FB05F108
:100A70001100205CA0F1300105F11000205C30383D
:100A8000CDE9000105F10F00205CA0F1300305F174
:100A90000E00205CA0F1300259A15C4801F09AFBE5
:100AA00005F11900205C05F11801615C05F11702E0
:100AB000A25C05F11603E35CCDE90232CDE9041036
:100AC00005F11500205C05F11401615CCDE9001011
:100AD00005F11300235C401E225C4DA1514801F03A
:100AE00079FB05F12D00205C05F12C01615C05F11D
:100AF0002B02A25C05F12A03E35CCDE90E32CDE9BD
:100B0000101005F12900205C05F12801615C05F158
:100B10002702A25C05F12603E35CCDE90A32CDE9A8
:100B20000C1005F12500205C05F12401615C05F144
:100B30002302A25C05F12203E35CCDE90632CDE994
:100B4000081005F12100205C05F12001625C491EBE
:100B5000615C05F11E03E35CCDE90231CDE90420BF
:100B600005F11D00205C05F11C01615CCDE9001060
:100B700005F11B00235C401E225C2BA1354801F0CF
:100B800029FB1E4934A001F015FB204935A001F0D6
:100B900011FB244937A001F00DFB2E4938A001F0CC
:100BA00009FBFFF74BFE94F84600122803D138A04A
:100BB00001F000FB03E03AA001F0FCFA00BF00BF27
:100BC00013B0F0BD207374617274496E646578204F
:100BD000256420002025782000000000256425647D
:100BE00025642563256425642564256325642564BF
:100BF0002564256325642564256425008C00002078
:100C0000256425642564256425640000C80000204F
:100C1000256325632564256425642564256425648E
:100C200000000000DC0000202563256325632563A8
:100C3000256425642564256425642563256325636F
:100C4000256425642564256425642564256425645C
:100C500000000000980400200D0A206970203D204B
:100C6000257300000D0A20706F7274203D202573DB
:100C7000000000000D0A206964203D20257300005B
:100C80000D0A206E756D626572203D20257300008F
:100C90000D0A203078313220BDD3CADC00000000BC
:100CA0000D0A2064656661756C7420BDD3CADC00D2
:100CB00030B5044604254FF4302000F06FF80546A7
:100CC000042D17D10C48006940F002000A49086160
:100CD00008464461006940F0400008614FF430204C
:100CE00000F05CF805460448006941F6FD710840D3
:100CF00001490861284630BD0020024004200B490C
:100D0000C96801F0010109B101200EE00749C96875
:100D100001F0040109B1022007E00449C96801F0AB
:100D2000100109B1032000E00420704700200240B8
:100D30000348006940F080000149086170470000E5
:100D40000020024070B504460D460426F00200F073
:100D500025F80646042E11D10948006940F001002B
:100D6000074908612580F00200F018F8064604489B
:100D7000006941F6FE71084001490861304670BDC6
:100D80000020024002480349486003484860704719
:100D90002301674500200240AB89EFCD00B5024634
:100DA0000423FFF7ABFF034603E0FFF7A7FF03466B
:100DB000521E012B01D1002AF7D102B90523184692
:100DC00000BD00002DE9F047054688461646B5F1FE
:100DD000006F04D305EB46001049884201D3BDE8FB
:100DE000F087FFF7CFFFA5F100694FEAD9274FF051
:100DF000006000EBC72A5046FFF75AFF002407E0C7
:100E000038F8141005EB4400FFF79CFF601C84B217
:100E1000B442F5DBFFF78CFF00BFE0E700000808F5
:100E20002DE9F04387B081460F461446A4F1060829
:100E3000404601F0E5FE0646A21FB91D3046FFF709
:100E400093F9002505E0715D19A001F0B3F9681C64
:100E500085B2A01FA842F6DC022016498873002044
:100E600008710E21134841710F22014601A8FFF7B6
:100E70007BF901208DF81300FF208DF814008DF808
:100E80001500FA208DF816001F208DF81700F120AC
:100E90008DF81800AF208DF81900162101A800F078
:100EA000EFFA304601F078FC07B0BDE8F0830000AF
:100EB00025630000860400202DE9F041024600254C
:100EC0000026002000230024002791F803C00CF026
:100ED0000F0591F803C00CF0100CBCF1000F03D00B
:100EE00091F802C04CEA050591F800C0BCF1000F72
:100EF00031D0146800202BE04FF0010C0CFA00F305
:100F0000B1F800C00CEA03069E4220D183004FF0E6
:100F10000F0C0CFA03F7BC4305FA03FC4CEA04047B
:100F200091F803C0BCF1280F06D14FF0010C0CFA68
:100F300000FCC2F814C00AE091F803C0BCF1480FED
:100F400005D14FF0010C0CFA00FCC2F810C0401C97
:100F50000828D1D31460B1F800C0BCF1FF0F34DD14
:100F6000546800202EE000F1080C4FF0010808FA48
:100F70000CF3B1F800C00CEA03069E4221D18300B5
:100F80004FF00F0C0CFA03F7BC4305FA03FC4CEAD4
:100F9000040491F803C0BCF1280F05D100F1080C3E
:100FA00008FA0CF8C2F8148091F803C0BCF1480F9D
:100FB00007D100F1080C4FF0010808FA0CF8C2F84C
:100FC0001080401C0828CED35460BDE8F0814161F8
:100FD00070470161704708B54FF4E06000F0B8FB5E
:100FE00026208DF8000001208DF801008DF8020008
:100FF0008DF80300684600F073FB08BD10B50121B1
:101000000148FFF7E4FF10BD0008014008B50121C9
:10101000042000F00BFC0120ADF8000010208DF83A
:10102000030003208DF8020069460248FFF744FFE1
:1010300008BD00000008014010B501210148FFF77C
:10104000C8FF10BD0008014010B502210148FFF79C
:10105000BEFF10BD0008014008B50121042000F0CA
:10106000E5FB0220ADF8000010208DF803000320FE
:101070008DF8020069460248FFF71EFF08BD000018
:101080000008014010B502210148FFF7A2FF10BD82
:101090000008014000B585B00121042000F0C6FB26
:1010A0000121480400F0B2FB0420ADF81000182024
:1010B0008DF8130003208DF8120004A91648FFF7DD
:1010C000FBFE0820ADF8100004208DF8130004A9E1
:1010D0001148FFF7F1FE4FF4E13000900020ADF829
:1010E0000400ADF80600ADF80800ADF80C000C20C7
:1010F000ADF80A006946094800F0C2FFFFF76BFF30
:10110000012240F22551054800F094FF01210348D7
:1011100000F04DFF05B000BD000801400044004054
:101120000FB430B585B009A8009073E00898007836
:101130005C281CD10898401C089000786E2809D0C3
:1011400072280FD10D21374801F00BF80898401C88
:1011500008900BE00A21334801F003F80898401C7E
:10116000089003E00898401C089000BF4BE00898E6
:101170000078252840D10898401C08900078642801
:1011800018D0732833D1009810C800900BE0217854
:10119000244800F0E6FF00BF8021224800F013FF42
:1011A0000028F9D0641C20780028F0D10898401C51
:1011B000089020E0009820C800900A2201A9284643
:1011C00001F0E8FC01AC0BE02178164800F0C9FF03
:1011D00000BF8021134800F0F6FE0028F9D0641CFF
:1011E00020780028F0D10898401C089003E0089867
:1011F000401C089000BF06E0089810F8011B0890FA
:10120000084800F0AEFF00BF8021064800F0DBFE7A
:101210000028F9D008980078002887D105B030BCA4
:101220005DF814FB0044004001480078704700005E
:101230003900002010B54FF400710248FFF7C9FED5
:1012400010BD00000010014010B54FF400710248BD
:10125000FFF7BDFE10BD00000010014070B506464E
:101260000D462A4631462A48FEF77EFF2C4616E0F8
:10127000E01E2749085CFA280FD1A01E085CF1285F
:101280000BD1601E085C1F2807D10846005DAF28FF
:1012900003D1E01E1F49088003E0601E84B2002CC9
:1012A000E6DC00BF1B48008818B9A54201D1022026
:1012B00070BD174917480088001D085C1649088052
:1012C000084600884FF6FF7101EA002012490880A5
:1012D0000F4910480088401D085C0F4909880844E0
:1012E0000D4908800B480088291A0B4800880830EF
:1012F000814209D0074800882A1A0748018807A0B8
:1013000000F058FF0320D3E70A4805800120CFE70B
:101310008703002044000020460000200D0A206CB6
:10132000656E677468206572726F7220256420256F
:10133000642000004200002010B5B4B036A000F0D8
:1013400039FF01203E4908703E493F480088801D12
:10135000084401683291406833903A493A4800881D
:101360000E300C5C39480088A0F10D020B4636485F
:1013700000880F3019186846FEF7F6FEA12C26D01B
:1013800006DC012C09D0022C10D0042C3AD116E036
:10139000A22C25D0A42C35D12BE02C4800880D3868
:1013A00082B2694632A8FFF757FA2FE02748008833
:1013B0000D3882B2694632A8FFF732FD26E0234895
:1013C00000880D3882B2694632A800F0E7FA1F485B
:1013D00000880D3882B2694632A800F0F7FB15E0AC
:1013E0001A4800880D3882B2694632A800F098FA8F
:1013F0000CE0164800880D3882B2694632A800F029
:10140000C3F903E012A000F0D5FE00BF00BF00202A
:101410000B49087034B010BD0D0A2047736D5F444E
:1014200065616C776974685365727665724E657430
:1014300050726F746F636F6C4461746120200000A0
:1014400050000020870300204400002046000020B8
:101450000D0A2047736D5F4465616C77697468534A
:1014600065727665724E657450726F746F636F6CDF
:101470004461746120CEB4B6A8D2E5D6B8C1EE00FE
:10148000F8B505460E461A200090002723A000F06C
:1014900091FE01F05BF923A000F08CFE4FF4FA728C
:1014A00022A123A001F0AAF900282DD123A000F049
:1014B00081FE00240CE0295D224800F052FE00BFAE
:1014C0008021204800F07FFD0028F9D0601CC4B2C4
:1014D000B442F0DB1CA000F06DFE01F037F964228D
:1014E0000021684601F08AF908E0781CC0B207467E
:1014F000C82800DD09E06420FFF731FA14A001F0EC
:1015000097F90028F1D1F8BD00BF1B200090002200
:101510001146684601F072F90120F4E70D0A203106
:10152000000000000D0A2032000000003E00000014
:1015300041542B43495053454E440D000D0A20336E
:1015400000000000004400400D0A203400000000AC
:1015500053454E44204F4B0070B586B004460D46AF
:101560001646502C45D00CDC042C4AD004DC012C4F
:1015700041D0022C49D143E0102C0BD0202C44D177
:1015800036E0802C36D0A12C3CD0A22C3BD0A42C11
:101590003BD139E001F0DAF81FA000F00BFE10207B
:1015A00024498873002008710E212248417122A02D
:1015B00000F000FE0F221F496846FEF7D5FD1F20F0
:1015C0008DF80F00FF208DF810008DF81100FA2023
:1015D0008DF812001F208DF81300F1208DF81400F3
:1015E000AF208DF8150016216846FFF749FF10E07F
:1015F0000FE00EE00DE031462846FFF737F908E02E
:1016000007E006E005E004E003E013A000F0D2FDEF
:1016100000BF00BF06B070BD0D0A2034343434342E
:10162000343434343434343434343434343434347A
:1016300034343400860400200D0A2033333333332E
:10164000333333333333333333333333333333336A
:1016500033333333330000000D0A2047736D5F537B
:10166000656E644E6574446174615061636B546F60
:1016700053657276657220CEB4B6A8D2E5D6B8C1ED
:10168000EE00000000BFFEE710B500BF00BF01F094
:101690005DF8C82202A103A001F0B0F810BD00005F
:1016A0004F4B000041542B434E554D0D00000000A0
:1016B00000BFFEE7704708B54FF4E06000F048F85F
:1016C00025208DF8000000208DF8010001208DF804
:1016D00002008DF80300684600F002F808BD000023
:1016E00070B5002100230F22C47804B3154C246880
:1016F00004F4E064C4F5E064210AC1F10403CA40C3
:10170000447804FA03F184781440214309010E4C13
:101710000678A155047804F01F050124AC40057833
:101720006D11AD0005F1E025C5F8004109E0047830
:1017300004F01F050124AC40044D0678761145F8ED
:10174000264070BD0CED00E000E400E080E100E028
:1017500002490143024A1160704700000000FA0587
:101760000CED00E00648006800F4E060054908431D
:10177000001D03490860BFF34F8F00BFFEE7000064
:101780000CED00E00000FA0570B504460D46164663
:1017900011A000F00FFDA4201949887300200871E2
:1017A0000E21174841710F2201461648FEF7DCFC56
:1017B00001201449C873FF2008744874FA20887403
:1017C0001F20C874F1200875AF20487516210D48F8
:1017D000FFF756FE70BD00000D0A204F766572526D
:1017E00065676973746572656446756E6374696F65
:1017F0006E547970654D616E61676572200D0A00E7
:1018000086040020870300207047000029B1064AA3
:10181000D2690243044BDA6104E0034AD26982438D
:10182000014BDA61704700000010024029B1064AFE
:1018300092690243044B9A6104E0034A926982432D
:10184000014B9A61704700000010024030B5002142
:101850000022002400232D4D6D6805F00C0121B1FC
:10186000042905D0082923D105E0294D056022E08F
:10187000274D05601FE0254D6D6805F47012234D5E
:101880006D6805F48034022505EB92421CB9214DA8
:10189000554305600BE01D4D6D6805F400351DB125
:1018A0001C4D5543056002E0194D5543056002E0AB
:1018B000174D056000BF00BF144D6D6805F0F001C5
:1018C0000909154D6B5C0568DD4045600F4D6D687D
:1018D00005F4E061090A104D6B5C4568DD408560E8
:1018E0000A4D6D6805F46051C90A0B4D6B5C456883
:1018F000DD40C560054D6D6805F44041890B074D1D
:101900006B5CC568B5FBF3F5056130BD00100240A6
:1019100000127A0000093D006C0000207C000020CD
:1019200070B504460D46164611A000F043FCA220F7
:1019300018498873002008710E21164841710F2242
:1019400001461548FEF710FC01201349C873FF201B
:1019500008744874FA2088741F20C874F120087530
:10196000AF20487516210C48FFF78AFD70BD0000B6
:101970000D0A205265676973746572656446756EF9
:101980006374696F6E547970654D616E61676572DD
:10199000200D0A00860400208703002014462146FB
:1019A00029A000F007FC0420324988730020087148
:1019B0000E21304841710F2201462F48FEF7D4FB1B
:1019C00001202D49C873FF2008744874FA208874D8
:1019D0001F20C874F1200875AF20487516212648CD
:1019E000FFF74EFD4FF47A70FEF7B9FF00F0B4FF39
:1019F0006420FEF7B4FF01F00DF841F28830FEF7E5
:101A0000AEFFFFF73FFB4FF47A70FEF7A8FF4FF4ED
:101A10007A70FEF7A4FFFFF717FB41F28830FEF75C
:101A20009EFF012080F3138800BF00BF13480068A9
:101A300000F4E06012490843001D10490860BFF33C
:101A40004F8F00BF00BFFEE70D0A2052657374611F
:101A5000727444657669636546756E74696F6E5419
:101A60007970654D616E61676572202564200D0A8D
:101A70000000000086040020870300200CED00E039
:101A80000000FA05704700000B4900220A604A6016
:101A900002680A6042684A60FA21084A1170F1211E
:101AA00051701F219170AF21D170911D02680A60A1
:101AB00042684A6070470000480000208604002009
:101AC000014908707047000040000020014908707B
:101AD000704700003900002010B500F001F810BD7B
:101AE0000CB50020019000903348006840F480302D
:101AF0003149086000BF3048006800F400300090B1
:101B00000198401C0190009818B90198B0F5A06F99
:101B1000F1D12948006800F4003010B10120009094
:101B200001E0002000900098012843D1234800687C
:101B300040F01000214908600846006820F00300CA
:101B400008600846006840F0020008601A484068D3
:101B5000194948600846406848600846406840F4B3
:101B6000806048600846406820F47C104860084661
:101B7000406840F4E81048600846006840F0807013
:101B8000086000BF0C48006800F000700028F9D021
:101B90000948406820F0030007494860084640684B
:101BA00040F00200486000BF0348406800F00C00AD
:101BB0000828F9D10CBD00000010024000200240AE
:101BC000012000F02AFBFFF7CDFD000070B50446B0
:101BD0000D46164611A000F0EDFAA1201A498873AF
:101BE000002008710E21184841710F220146174844
:101BF000FEF7BAFA01201549C873FF20087448742B
:101C0000FA2088741F20C874F1200875AF20487529
:101C100016210E48FFF734FC70BD00000D0A20535A
:101C2000706F6E736F725265676973746572656405
:101C300046756E6374696F6E547970654D616E613F
:101C4000676572200D0A00008604002087030020CB
:101C500008B501211020FFF7E9FD4FF47070ADF8D1
:101C6000000010208DF8030003208DF80200694663
:101C70000548FFF721F900F085FA00F093FAFFF725
:101C8000D9FA00F075FA08BD0010014010B500F057
:101C90002FF910BD30B51A4800681A4AB0FBF2F1AE
:101CA000B1F1807F01D301201DE021F07F40401E73
:101CB0004FF0E022506150170F22002807DA130777
:101CC0001D0E114B00F00F04241F1D5503E01307D8
:101CD0001C0E0E4B1C5400BF00204FF0E022906100
:101CE00007201061002008B100BFFEE74FF0E020A0
:101CF000006920F001004FF0E021086130BD0000D4
:101D00005800002040420F0018ED00E000E400E021
:101D100010B51348006840F00100114908600846FA
:101D20004068104908400E494860084600680E495E
:101D300008400B4908600846006820F480200860CD
:101D40000846406820F4FE0048604FF41F00886099
:101D5000FFF7C2FE4FF000600449086010BD0000AC
:101D6000001002400000FFF8FFFFF6FE08ED00E063
:101D700010B50121880700F021F80A480068401CCE
:101D800008490860084600683C280AD1002008601D
:101D900005A000F00FFA0848007810B90220FFF7FC
:101DA00095FE10BD540000200D0A20B7A2D0C4CC6F
:101DB000F8B0FC200D0A200050000020CA43028227
:101DC000704721B1028842F00102028004E00288DB
:101DD0004FF6FE731A40028070471AB183890B4395
:101DE000838102E083898B438381704700220288CC
:101DF0001D4B98420ED01D4B98420BD0B0F1804F36
:101E000008D01B4B984205D01A4B984202D01A4B6F
:101E1000984204D14FF68F731A404B881A43174BE0
:101E2000984207D0164B984204D04FF6FF431A4011
:101E3000CB881A4302808B8883850B8803850A4BE5
:101E400098420BD0094B984208D00E4B984205D0CF
:101E50000D4B984202D00D4B984201D10B7A03866C
:101E60000123838270470000002C014000340140B0
:101E70000004004000080040000C0040001000403A
:101E8000001400400040014000440140004801406F
:101E90001FB501210846FFF7B9FC42F20F70ADF8FB
:101EA000080041F61F40ADF804000020ADF80A001C
:101EB000ADF8060001A94FF08040FFF797FF1C2006
:101EC0008DF8000000208DF8010001208DF802003F
:101ED0008DF803006846FFF703FC012211469007C6
:101EE000FFF77BFF01218807FFF76BFF1FBD000095
:101EF0000448006820B103480068401E014908609A
:101F0000704700003C00002010B540F225511E48EB
:101F100000F066F8002836D01B4800F01DF91B4978
:101F20001B4A127888541A480078401C18490870D7
:101F300008460078FA2805DB00200870FE211348C7
:101F4000FEF72BF912480078401E1049085C04285F
:101F500019D10F480078801E085CA0B90C480078A1
:101F6000C01E085C30280ED109480078001F085CAC
:101F7000302808D106480078411E0448FEF710FDBD
:101F80000120FFF79DFD10BD00380140FC0000203E
:101F90000000002010B500F07BFB10BD01F40072C2
:101FA000B2F5007F00D100BFCA430280704721B163
:101FB000828942F40052828104E082894DF6FF73E7
:101FC0001A408281704702460020B1F5007F00D19F
:101FD00000BF13880B400BB1012000E000207047C8
:101FE00070B50246002400230025002040F66A1642
:101FF000B14200D100BFC1F3421501F01F03012619
:1020000006FA03F3012D02D19689334006E0022D32
:1020100002D1168A334001E0968A33400C12012621
:1020200006FA04F41688344013B10CB1012000E024
:10203000002070BDF0B503460024002600250020D6
:1020400040F66A17B94200D100BF1846C1F34214E6
:1020500001F01F06012707FA06F5012C01D10C300B
:1020600004E0022C01D1103000E014301AB10768EE
:102070002F43076002E00768AF430760F0BD000030
:102080002DE9F04786B005460E460024A24600BF63
:10209000A1460027B08900B100BF2F462C8A4CF61C
:1020A000FF700440F08804432C82AC894EF6F31094
:1020B0000440B08831890843718908430443AC81E6
:1020C000AC8A4FF6FF400440B0890443AC8201A8BB
:1020D000FFF7BCFB1F48874202D1DDF810A001E0EA
:1020E000DDF80CA0A88900F4004040B10AEBCA005A
:1020F00000EB0A1031684900B0FBF1F807E00AEB89
:10210000CA0000EB0A1031688900B0FBF1F86420C6
:10211000B8FBF0F004012009642101FB1089A889B3
:1021200000F4004040B1322000EBC900B0FBF1F0F8
:1021300000F00700044308E0322000EB091064219E
:10214000B0FBF1F000F00F0004432C8106B0BDE8B5
:10215000F08700000038014001468888C0F308007D
:102160007047C1F308028280704700BFFEE700009D
:1021700010B54FF480710248FEF72BFF10BD000030
:102180000010014010B580210148FEF722FF10BD6C
:102190000010014010B580210148FEF718FF10BD66
:1021A0000010014010B540210148FEF712FF10BD9C
:1021B000001001400FB4054B10B503A9044A029862
:1021C00000F030F810BC5DF814FB00007527010822
:1021D000800000200FB4084B10B504A902AA039890
:1021E00000F020F8044602A9002000F04CFA204636
:1021F00010BC5DF814FB00008726010802E008C847
:10220000121F08C1002AFAD170477047002001E070
:1022100001C1121F002AFBD1704700F0010181F3B8
:10222000138870472DE9FF4F8DB00F4605460026F5
:1022300006E025280BD0DDE90F1290476D1C761CB7
:1022400028780028F5D111B03046BDE8F08F002481
:10225000A246A1460122EC4900E0044315F8013FE3
:10226000203B02FA03F00842F7D128782A2810D040
:102270006FF02F022878A0F13001092914D80AEB59
:102280008A0102EB410144F0020400EB010A6D1CDB
:10229000F0E701CF5FEA000A03D544F40054CAF125
:1022A000000A44F002046D1C28782E2817D115F876
:1022B000010F44F004042A280ED06FF02F02287872
:1022C000A0F1300109290AD809EB890102EB41018B
:1022D00000EB01096D1CF2E757F8049B6D1C287890
:1022E0006C280FD006DC4C2817D068280DD06A283F
:1022F00014D104E0742810D07A280FD10DE044F4F2
:1023000000140AE044F4801401E044F440146978B5
:10231000814202D104F580146D1C6D1C2A786E2A4E
:102320001FD00CDC632A31D004DC002A8BD0582A61
:1023300011D1A3E0642A68D0692A0CD165E0732A20
:102340002ED004DC6F2A73D0702A04D19BE0752A4A
:102350006FD0782A6ED01046DDE90F129047761CB8
:1023600050E1C4F30250022806D0032809D0042803
:1023700001CF09D0066045E101CFF117C0E9006146
:1023800040E101CF06803DE106703BE117F8040B08
:102390008DF8000000208DF80100EB46012003E0DD
:1023A00057F804BB4FF0FF3061074FF0000102D433
:1023B0000DE008F10101884649450FDA8045F8DB58
:1023C0001BF808100029F4D108E008F10101884643
:1023D0008142FADB1BF808100029F6D1DDE90F2352
:1023E000AAEB08008146214600F036F9304400EBA4
:1023F000080604E0DDE90F121BF8010B9047B8F165
:102400000108F7D221464846F7E00A21C4F30253F7
:102410004FF0000B0891022B04D001CFC117032B02
:1024200009D00AE0FF1D27F00707F7E8020108E0DE
:1024300032E01FE020E000B2C117042B01D140B20E
:10244000C117031E71F1000307DA4FF0000CD0EB47
:102450000C006CEB01012D2302E0230504D52B2396
:102460008DF82430012303E0E30701D02023F7E7B0
:10247000984658E00A2110E010210EE010204FF09D
:10248000000B08900CE010214FF0000B44F0040406
:102490004FF00809089103E008214FF0000B089164
:1024A000C4F30253022B04D001CF0021032B06D02A
:1024B00006E0FF1D27F00707F7E8020103E080B2FE
:1024C000042B00D1C0B24FF0000823072BD5702A8F
:1024D00007D0DDF820C08CF0100C5CEA0B0C05D0A6
:1024E0000EE040238DF82430012308E050EA010378
:1024F00006D030238DF824308DF82520022398460D
:10250000DDF820C08CF0080C5CEA0B0C0BD150EA13
:10251000010301D1630706D530238DF824304FF035
:102520000108A9F10109582A04D038A20B9208AA7F
:102530000A920BE03AA2F9E75B46089AFDF74AFED9
:102540000B9B9B5C0A9A521E0A92137050EA01027E
:10255000F2D10A98ADEB000000F1200B600702D524
:1025600024F4803401E04FF00109D94502DDA9EBE4
:102570000B0000E0002000EB0B0141440890AAEBA7
:10258000010AE00306D4DDE90F232146504600F09E
:1025900063F806444FF0000908E009A911F80900A2
:1025A000DDE90F12904709F10109761CC145F4DB02
:1025B000E0030CD5DDE90F232146504600F04CF82E
:1025C000064404E0DDE90F1230209047761C08999C
:1025D000481E08900029F5DC08E00A980A9900785E
:1025E000491C0A91DDE90F129047761CBBF10001EE
:1025F000ABF1010BF1DC21465046DDE90F2300F081
:1026000019F806446D1C1BE60928010030313233ED
:10261000343536373839616263646566000000001E
:102620003031323334353637383941424344454608
:10263000000000002DE9F041044600251E46174623
:10264000880404D405E039462020B0476D1C641E80
:10265000F9D52846BDE8F0812DE9F0410446002572
:102660001E469046C80301D5302700E02027880485
:1026700004D505E041463846B0476D1C641EF9D5C7
:102680002846BDE8F0810A68531C0B601070704743
:1026900010B525480078FF2844DA40F22551234838
:1026A000FFF79EFC00283DD02048FFF755FD20494C
:1026B0001D4A127888541C480078401C1A4908703A
:1026C0000846007821282DDB08460078001F1849AD
:1026D000085CFA2826D114480078C01E085C1F2820
:1026E00020D111480078801E085CF1281AD10E48CC
:1026F0000078401E085CAF2814D10B4801780C48C4
:10270000FEF7ACFD012808D10AA0FFF753FD012018
:10271000FFF7DCF900F01AF804E009A0FFF74AFD22
:1027200000F014F810BD00003A0000200044004002
:10273000880200200D0A20D0A3D1E9B3C9B9A600B0
:102740000D0A20D0A3D1E9B4EDCEF3004FF4807090
:102750000021064A117005E00022411E89B2084698
:10276000034B5A540028F7D1704700003A0000206C
:102770008802002070B504460D46E1B20548FFF717
:10278000F0FC00BF80210348FFF71DFC0028F9D0B2
:10279000204670BD0038014010B5002821D0114BF3
:1027A0000022001F196803E0814203D80A464968E5
:1027B0000029F9D152B11368841A9C4204D10068EF
:1027C00018441060104602E0506000E0186039B113
:1027D00002680B1A934203D10B681A4402604968DD
:1027E000416010BD84000020014602480078087056
:1027F000014870473A0000208802002070B5054665
:102800000C46164600BF00BFFFF7A0FF294607A0F1
:10281000FEF786FC00BF00BF0CB9002070BD30463B
:10282000FEF79DF8204600F003F8F7E72573000057
:10283000F8B5054600BF00BF6846FFF7D5FF07465D
:1028400000209DF80010785400BF00BF002400262F
:102850000EE0285D08B90020F8BDA019385C295D9C
:10286000884202D1601CC4B202E0701CC6B20024CF
:10287000A0199DF800108842EBDB285D08B9002004
:10288000EAE70120E8E7000010B500BF00BFFFF74E
:102890005DFF4FF4FA60FEF762F8C82219A11AA092
:1028A000FFF7ACFF08B1012010BDFFF74FFF4FF459
:1028B000FA60FEF754F8C82212A117A0FFF79EFF96
:1028C00008B10120F0E7FFF741FF4FF4FA60FEF78F
:1028D00046F8C8220BA117A0FFF790FF08B101200E
:1028E000E2E7FFF733FF4FF4FA60FEF738F8C8224B
:1028F00004A113A0FFF782FF08B10120D4E7002054
:10290000D2E700004F4B000041542B4347434C415A
:1029100053533D2242220D0041542B434744434F21
:102920004E543D312C224950222C22434D4E4554C9
:10293000220D000041542B43474154543D310D00BA
:1029400041542B434950435347503D312C22434D72
:102950004E4554220D00000010B500BF00BFFFF728
:10296000F5FEC82204A105A0FFF748FF08B1012029
:1029700010BD0020FCE700004F4B000041542B43EA
:102980004950434C4F53453D310D000038B5044686
:102990001A200090002500BF00BFFFF7D7FE4FF4BC
:1029A000FA7215A115A0FFF729FFD0B9214616A08C
:1029B000FEF7B6FBFFF7CAFE642200216846FFF768
:1029C0001DFF08E0681CC0B20546C82800DD09E00C
:1029D0006420FDF7C4FF0DA0FFF72AFF0028F1D106
:1029E00038BD00BF1B200090002211466846FFF74B
:1029F00005FF0120F4E700003E00000041542B4396
:102A0000495053454E440D002573000053454E4434
:102A1000204F4B0010B5002400BF00BFFFF796FE0B
:102A2000002211460AA0FFF7E9FE09E0601CC0B2CF
:102A30000446322801DD012010BDC820FDF78FFFBC
:102A400006A0FFF7F5FE0028F0D100BFF4E7000074
:102A500041542B434950534855540D004F4B0000EF
:102A6000F0B599B004460D461646002700BF00BFDA
:102A7000224616A16846FFF7ADFB642219A16846FD
:102A8000FFF7BCFE10B1012019B0F0BDFFF75EFEEC
:102A900033462A4614A16846FFF79CFB64220021B6
:102AA0006846FFF7ABFE09E0781CC0B20746C828AD
:102AB00001DD0120E8E76420FDF751FF12A0FFF7D8
:102AC000B7FE0028F0D100BFDEE7000041542B43E1
:102AD0004C504F52543D22544350222C22257322F5
:102AE0000D0000004F4B000041542B4349505354FC
:102AF0004152543D22544350222C222573222C2231
:102B00002573220D00000000434F4E4E45435420D4
:102B10004F4B000038B500BF00BFFFF717FEFEF7B0
:102B2000B9FA64220FA110A0FFF768FE08B10120D6
:102B300038BD6846FFF758FE04469DF8000008B906
:102B40000120F5E70BA12046FDF732FB08B100207C
:102B5000EEE70CA12046FDF72BFB08B10020E7E7CC
:102B60000120E5E74F4B000041542B43474D4D0DED
:102B70000000000053494D434F4D5F47534D3930DE
:102B80003041000053494D434F4D5F53494D38305C
:102B900030000000F0B503460D46164600272946D2
:102BA0000A2E03D0002008702846F0BD33B930202B
:102BB00001F8010B002008702846F6E7002B03DA25
:102BC0002D2001F8010B5B4242F210720DE093FBE5
:102BD000F2F404B937B104F1300001F8010B04FB41
:102BE000123301270A2092FBF0F2002AEFDC0020CA
:102BF00008702846D9E7FDF751FBFDF761FB00009F
:102C0000F0B50B30154D20F007010024144A0FE0F9
:102C100003688B420BD38B4205D95E1A4318476871
:102C2000C3E9006700E04368136002C004E0021DCE
:102C300010680028ECD12046002802D1286808B18D
:102C40000020F0BD064A07481060074A121A22F019
:102C50000702C0E9002401202860D7E7880000208F
:102C600084000020EC040020E80600200D0AC8F4CF
:102C7000C4A3BFE9CFECD3A6B2E2CAD4D2BBD6B1CB
:102C8000B2BBD5FDB3A3A3ACC7EBBCECB2E9C4A304
:102C9000BFE9B5C4C1ACBDD3BBF2CAC7B7F1D2D18D
:102CA000BFAAC6F4B5E7D4B4BFAAB9D80D0A0000CC
:102CB0000D0A312EB1FCBBF047534DC4A3BFE954FC
:102CC0004350CAFDBEDDC9CFB4ABB9A6C4DCB2E285
:102CD000CAD40000F42C0108000000208C00000081
:102CE000FC210108802D01088C0000205C0A0000F6
:102CF0000C22010800000000B02C01080031323322
:102D0000343536373825FAF11FAF001D31323334F0
:102D100035363738013139323136383030303030AD
:102D20003138383838FFFFFA1FF1AF0000000000DB
:102D300000000000000000000000000031323334C9
:102D400035363738000000000000000000A24A04B9
:102D5000000000000000000001020304060708094B
:102D60000000000001020304010203040607080931
:102D7000020406080000000000000000000000003F
:0400000508010131BC
:00000001FF
