:020000040800F2
:100000009008002045010008890F0008590F0008DA
:10001000850F00081D0700083318000800000000C5
:10002000000000000000000000000000591300085C
:100030002508000800000000DD1000086115000818
:100040005F0100085F0100085F0100085F01000810
:100050005F0100085F0100085F0100085F01000800
:100060005F0100085F0100085F0100085F010008F0
:100070005F0100085F0100085F0100085F010008E0
:100080005F0100085F0100085F0100085F010008D0
:100090005F0100085F0100085F0100085F010008C0
:1000A0005F0100085F0100085F0100085F010008B0
:1000B0005F0100085F0100085F0100085F010008A0
:1000C0005F0100085F0100085F0100085F01000890
:1000D0005F0100085F0100085D1600085F0100086D
:1000E0005F0100085F0100085F0100085F01000870
:1000F0005F0100085F0100085F0100085F01000860
:100100005F0100085F0100085F0100085F0100084F
:100110005F0100085F0100085F0100085F0100083F
:100120005F0100085F0100085F0100085F0100082F
:10013000DFF80CD000F052F8004800471720000804
:10014000900800200648804706480047FEE7FEE783
:10015000FEE7FEE7FEE7FEE7FEE7FEE7FEE7FEE777
:10016000E51500083101000840EA01039B0703D0B0
:1001700009E008C9121F08C0042AFAD203E011F8E6
:10018000013B00F8013B521EF9D2704730B50546DD
:100190002A460B4612F8010B13F8014B08B1A04296
:1001A000F8D01CB1002802D06D1CF1E7284630BD04
:1001B00030B50B46014600202022012409E021FA37
:1001C00002F59D4205D303FA02F5491B04FA02F534
:1001D0002844151EA2F10102F1DC30BD064C074D8A
:1001E00006E0E06840F0010394E807009847103407
:1001F000AC42F6D3FFF7A0FFF4200008142100085A
:1002000010B501F0B1F900F0C1FA00F023FC00F0E4
:1002100047FC01F087F910BD01F020FBA04801F078
:100220009DF8A0A001F02AFBA2A001F027FB00F09E
:1002300009FC4FF4FA6000F0F6FA4FF4FA6000F0AF
:10024000F2FAA1A001F01AFB00F01AFC4FF4FA60D8
:1002500000F0E9FAA1A001F011FB00F019FC00F098
:1002600035FC40F6C41000F0DEFAA0A001F006FB59
:1002700000F00EFC40F6C41000F0D5FAA1A001F089
:10028000FDFA27E0A5A001F0F9FAAB4801F0F6FA73
:100290004FF47A7000F0C7FAA8480078401CA749CC
:1002A000087008460078082814DB00F00FFC4FF4B3
:1002B0007A7000F0B8FA4FF47A7000F0B4FA00F0F7
:1002C000E7FB41F2883000F0AEFA012001F009FBB3
:1002D00000F0B2FE01F02EFE0028D3D198A001F06C
:1002E000CDFA2CE09E480078401CC0B29C490870B2
:1002F000142820DD9B480078401C9A4908709AA079
:1003000001F0BCFA974800780C2814DB00F0DEFB03
:100310004FF47A7000F087FA4FF47A7000F083FAA5
:1003200000F0B6FB41F2883000F07DFA012001F0C8
:10033000D8FA00F081FE4FF47A7000F074FA00F001
:100340000DFE0028CED101F017FD642000F06BFAFD
:1003500001F070FD8FA001F091FA4FF4FA6000F007
:1003600062FA01F0A1FCB8B190A001F087FA00F0A8
:10037000ADFB4FF47A7000F056FA4FF47A7000F04B
:1003800052FA00F085FB41F2883000F04CFA01206F
:1003900001F0A7FA00F050FE90A001F06FFA98A2C9
:1003A00099A19CA001F06CFD00282BD09BA001F02E
:1003B00065FA4FF47A7000F036FAA3A001F05EFA05
:1003C000642000F030FA01F0D7FCA3A001F056FA47
:1003D000642000F028FA01F02DFDA2A001F04EFAF1
:1003E00000F074FB4FF47A7000F01DFA4FF47A704D
:1003F00000F019FA00F04CFB41F2883000F013FADB
:1004000001F048F800F044FC9BA001F037FA01F03D
:10041000ADFB9EA001F032FA4FF47A7000F003FABF
:10042000A148006801F0C2FC00282AD000F026FC98
:100430009EA001F023FA4FF47A7000F0F4F9A6A020
:1004400001F01CFA642000F0EEF901F095FCA6A082
:1004500001F014FA642000F0E6F901F0EBFC00F082
:1004600035FB4FF47A7000F0DEF94FF47A7000F04B
:10047000DAF900F00DFB41F2883000F0D4F901F018
:1004800009F801F073FB0AE000F0F2FB38B100203C
:1004900000F080FF97A001F0F1F900F071FCF3E7A4
:1004A000050000200D0A20D6D0C0B3D0A1CDF8B9E8
:1004B000D82000000D0A20B2BDD6E8D2BB20C6F479
:1004C000B6AF4750525320000D0A20B4F2BFAA47DE
:1004D000505253B5E7D4B40D0A0000000D0A20476E
:1004E000505253C8EDC6F0B6AF0D0A000D0A2020D9
:1004F000B5C8B4FD47505253C8EDC6F4B6AF0D0AA7
:10050000000000000D0A47505253C6F4B6AFCDEAC2
:10051000B1CF2D2D2D2D2D2D0D0A00000D0AC4A3B8
:10052000BFE9CFECD3A6B2E2CAD4B2BBD5FDB3A328
:10053000A3A1A3A10D0A00008C2000083300002015
:100540000D0AD5FDD4DAB5C8B4FD47534DC4A3BFD9
:10055000E9B3F5CABCBBAF2E2E2E0D0A0000000079
:1005600004000020340000200D0ABCECB2E2B2BB53
:10057000B5BDB5E7BBB0BFA8A3ACC7EBB6CFB5E779
:10058000B2A2D6D8D0C2BDD3C8EBB5E7BBB0BFA826
:100590000D0A00000AB3F5CABCBBAF47505253B9AD
:1005A000A4D7F7BBB7BEB32E2E2E0A000DB3F5CAE3
:1005B000BCBBAF47505253CAA7B0DCA3ACC7EBD605
:1005C000D8D0C2B8F8C4A3BFE9C9CFB5E7B2A2B8C2
:1005D000B4CEBBBFAAB7A2B0E50A00000AB3A2CA54
:1005E000D4BDA8C1A2544350C1B4BDD3A3ACC7EB82
:1005F000C4CDD0C4B5C8B4FD2E2E2E0A0000000014
:1006000033363530340000003132302E32342E345F
:10061000392E330032303030000000000D0A2054F3
:100620004350C1B4BDD3CAA7B0DCA3ACC7EBBCEC8C
:10063000B2E2D5FDC8B7C9E8D6C3B8F7B8F6C4A3C7
:10064000BFE90D0A000000000A204950C1B4BDD323
:10065000B6CFBFAA0A0000000A20B9D8B1D5B3A10D
:10066000BEB00A000D0A203573BAF3D7D4B6AFD6A0
:10067000D8C6F40D0A0000000D0A20C1ACBDD3B3EA
:10068000C9B9A62E2E2E2E0A000000000D0AC1ACFC
:10069000BDD3B3C9B9A62CB3A2CAD4B7A2CBCDCA15
:1006A000FDBEDD2E2E2E0A00000000200D0A544350
:1006B00050B7A2CBCDCAFDBEDDCAA7B0DCA3ACC784
:1006C000EBBCECB2E2D5FDC8B7C9E8D6C3B8F7B801
:1006D000F6C4A3BFE90D0A000A4950C1B4BDD3B6A0
:1006E000CFBFAA0A000000000AB9D8B1D5B3A1BE95
:1006F000B00A00000D0A2047736D5F4465616C7796
:100700006974685365727665724E657450726F7461
:100710006F636F6C446174610000000000BFFEE70E
:1007200070B504460D4616460021084600F002F852
:1007300070BD000000B587B0012013498873002008
:1007400008710E21104841710F22014601A8FFF7E0
:100750000BFD01208DF81300FF208DF814008DF89B
:100760001500FA208DF816001F208DF81700F120D3
:100770008DF81800AF208DF81900162101A800F09F
:100780009BFB07B000BD00007E02002000B585B0D5
:1007900000F0FBFB0121880300F0B2FC01210520E1
:1007A00000F0AEFC4FF40070ADF8100018208DF88A
:1007B000130003208DF8120004A9184800F0A0F8D7
:1007C0004FF48060ADF8100004208DF8130004A9E8
:1007D000124800F095F84FF4E13000900020ADF899
:1007E0000400ADF80600ADF80800ADF80C000C20D0
:1007F000ADF80A0069460A4800F0A6FF012240F25F
:100800002551074800F07AFF0121054800F033FF29
:10081000E021034800F026FF05B000BD00080140BC
:1008200000380140704701B503E04FF47A7000F0E2
:1008300007F80098411E00910028F6D108BD00007D
:1008400001B50849009808604FF0E020006940F0C9
:1008500001004FF0E021086100BF02480068002855
:10086000FBD108BD380000202DE9F04387B0814658
:100870000F461446A4F10608404601F0D1FB064697
:10088000A21FB91D3046FFF76FFC002505E0715D22
:1008900019A000F0F3FF681C85B2A01FA842F6DC87
:1008A000022016498873002008710E2113484171F7
:1008B0000F22014601A8FFF757FC01208DF8130015
:1008C000FF208DF814008DF81500FA208DF8160021
:1008D0001F208DF81700F1208DF81800AF208DF83B
:1008E0001900162101A800F0E7FA304601F064F97A
:1008F00007B0BDE8F0830000256300007E02002001
:100900002DE9F041024600250026002000230024A6
:10091000002791F803C00CF00F0591F803C00CF00C
:10092000100CBCF1000F03D091F802C04CEA050591
:1009300091F800C0BCF1000F31D0146800202BE00A
:100940004FF0010C0CFA00F3B1F800C00CEA0306FA
:100950009E4220D183004FF00F0C0CFA03F7BC43EA
:1009600005FA03FC4CEA040491F803C0BCF1280F1B
:1009700006D14FF0010C0CFA00FCC2F814C00AE0DA
:1009800091F803C0BCF1480F05D14FF0010C0CFAEF
:1009900000FCC2F810C0401C0828D1D31460B1F884
:1009A00000C0BCF1FF0F34DD546800202EE000F1E0
:1009B000080C4FF0010808FA0CF3B1F800C00CEA7B
:1009C00003069E4221D183004FF00F0C0CFA03F76F
:1009D000BC4305FA03FC4CEA040491F803C0BCF1E3
:1009E000280F05D100F1080C08FA0CF8C2F81480A1
:1009F00091F803C0BCF1480F07D100F1080C4FF08B
:100A0000010808FA0CF8C2F81080401C0828CED360
:100A10005460BDE8F081416170470161704708B5DD
:100A20004FF4E06000F0FEFA26208DF8000001206F
:100A30008DF801008DF802008DF80300684600F083
:100A4000B9FA08BD10B501210148FFF7E4FF10BD58
:100A50000008014008B50121042000F051FB0120ED
:100A6000ADF8000010208DF8030003208DF802007F
:100A700069460248FFF744FF08BD00000008014036
:100A800010B501210148FFF7C8FF10BD0008014063
:100A900010B502210148FFF7BEFF10BD000801405C
:100AA00008B50121042000F02BFB0220ADF8000066
:100AB00010208DF8030003208DF8020069460248DB
:100AC000FFF71EFF08BD00000008014010B502211D
:100AD0000148FFF7A2FF10BD0008014000B585B036
:100AE0000121042000F00CFB0121480400F0F8FA79
:100AF0000420ADF8100018208DF8130003208DF8A5
:100B0000120004A91648FFF7FBFE0820ADF81000FC
:100B100004208DF8130004A91148FFF7F1FE4FF4EB
:100B2000E13000900020ADF80400ADF80600ADF80B
:100B30000800ADF80C000C20ADF80A006946094821
:100B400000F002FEFFF76BFF012240F2255105483D
:100B500000F0D4FD0121034800F08DFD05B000BD7B
:100B600000080140004400400FB430B585B009A82A
:100B7000009073E0089800785C281CD10898401C0D
:100B8000089000786E2809D072280FD10D213748BF
:100B900000F04BFE0898401C08900BE00A213348F7
:100BA00000F043FE0898401C089003E00898401CA1
:100BB000089000BF4BE008980078252840D108989D
:100BC000401C08900078642818D0732833D100980E
:100BD00010C800900BE02178244800F026FE00BFEA
:100BE0008021224800F053FD0028F9D0641C2078B1
:100BF0000028F0D10898401C089020E0009820C8F8
:100C000000900A2201A9284601F0D4F901AC0BE0BA
:100C10002178164800F009FE00BF8021134800F03B
:100C200036FD0028F9D0641C20780028F0D10898FF
:100C3000401C089003E00898401C089000BF06E0A4
:100C4000089810F8011B0890084800F0EEFD00BF5E
:100C50008021064800F01BFD0028F9D00898007894
:100C6000002887D105B030BC5DF814FB004400407B
:100C700001480078704700003500002010B54FF49F
:100C800000710248FFF7C9FE10BD000000100140CE
:100C900010B54FF400710248FFF7BDFE10BD000013
:100CA0000010014070B506460D462A4631462A48D6
:100CB000FFF75AFA2C4616E0E01E2749085CFA288E
:100CC0000FD1A01E085CF1280BD1601E085C1F2804
:100CD00007D10846005DAF2803D1E01E1F490880F8
:100CE00003E0601E84B2002CE6DC00BF1B480088D5
:100CF00018B9A54201D1022070BD174917480088D4
:100D0000001D085C16490880084600884FF6FF71F0
:100D100001EA0020124908800F4910480088401D50
:100D2000085C0F49098808440D4908800B48008871
:100D3000291A0B4800880830814209D007480088EA
:100D40002A1A0748018807A000F098FD0320D3E77E
:100D50000A4805800120CFE77F0100203E000020E7
:100D6000400000200D0A206C656E67746820657273
:100D7000726F722025642025642000003C00002052
:100D800010B5B4B033A000F079FD3C493C48008870
:100D9000801D0844016832914068339037493848D3
:100DA00000880E300C5C37480088A0F10D020B461D
:100DB000334800880F3019186846FFF7D5F9A12C81
:100DC00026D006DC012C09D0022C10D0042C3AD1FC
:100DD00016E0A22C25D0A42C35D12BE02948008880
:100DE0000D3882B2694632A8FFF79AFC2FE02548F9
:100DF00000880D3882B2694632A8FFF735FD26E03B
:100E0000204800880D3882B2694632A800F030FAD6
:100E10001C4800880D3882B2694632A800F040FBB9
:100E200015E0184800880D3882B2694632A800F0F3
:100E3000E1F90CE0134800880D3882B2694632A807
:100E400000F00CF903E010A000F018FD00BF00BF97
:100E500034B010BD0D0A2047736D5F4465616C7737
:100E60006974685365727665724E657450726F74FA
:100E70006F636F6C44617461202000007F0100206B
:100E80003E000020400000200D0A2047736D5F44A3
:100E900065616C776974685365727665724E6574C6
:100EA00050726F746F636F6C4461746120CEB4B61E
:100EB000A8D2E5D6B8C1EE00F8B505460E461A2010
:100EC0000090002700F052FE4FF4FA721BA11CA004
:100ED00000F0A4FE38BB00240CE0295D1B4800F0A4
:100EE000A4FC00BF8021194800F0D1FB0028F9D0F4
:100EF000601CC4B2B442F0DB00F038FE6422002172
:100F0000684600F08BFE08E0781CC0B20746C8288F
:100F100000DD09E06420FFF786FC0DA000F098FEDC
:100F20000028F1D1F8BD00BF1B200090002211461F
:100F3000684600F073FE0120F4E700003E00000068
:100F400041542B43495053454E440D00004400404A
:100F500053454E44204F4B0000BFFEE710B500BF85
:100F600000BF00F003FEC82202A103A000F056FE5D
:100F700010BD00004F4B000041542B434E554D0D0A
:100F80000000000000BFFEE7704708B54FF4E060C6
:100F900000F048F825208DF8000000208DF80100B1
:100FA00001208DF802008DF80300684600F002F879
:100FB00008BD000070B5002100230F22C47804B3DF
:100FC000154C246804F4E064C4F5E064210AC1F11E
:100FD0000403CA40447804FA03F18478144021439E
:100FE00009010E4C0678A155047804F01F05012470
:100FF000AC4005786D11AD0005F1E025C5F8004164
:1010000009E0047804F01F050124AC40044D067883
:10101000761145F8264070BD0CED00E000E400E0DC
:1010200080E100E002490143024A1160704700007C
:101030000000FA050CED00E00648006800F4E060EE
:1010400005490843001D03490860BFF34F8F00BFE7
:10105000FEE700000CED00E00000FA0570B5044664
:101060000D46164611A000F009FCA420194988730A
:10107000002008710E21174841710F2201461648C1
:10108000FFF772F801201449C873FF2008744874F0
:10109000FA2088741F20C874F1200875AF204875A5
:1010A00016210D48FFF708FF70BD00000D0A204F04
:1010B0007665725265676973746572656446756EAC
:1010C0006374696F6E547970654D616E61676572A6
:1010D000200D0A007E0200207F01002070470000E2
:1010E00029B1064AD2690243044BDA6104E0034A9B
:1010F000D2698243014BDA61704700000010024060
:1011000029B1064A92690243044B9A6104E0034AFA
:1011100092698243014B9A617047000000100240BF
:1011200030B500210022002400232D4D6D6805F00C
:101130000C0121B1042905D0082923D105E0294D4E
:10114000056022E0274D05601FE0254D6D6805F420
:101150007012234D6D6805F48034022505EB924230
:101160001CB9214D554305600BE01D4D6D6805F41C
:1011700000351DB11C4D5543056002E0194D554326
:10118000056002E0174D056000BF00BF144D6D689B
:1011900005F0F0010909154D6B5C0568DD404560FF
:1011A0000F4D6D6805F4E061090A104D6B5C4568F0
:1011B000DD4085600A4D6D6805F46051C90A0B4D2C
:1011C0006B5C4568DD40C560054D6D6805F44041C8
:1011D000890B074D6B5CC568B5FBF3F5056130BD48
:1011E0000010024000127A0000093D00600000205B
:1011F0007000002070B504460D46164611A000F0A0
:101200003DFBA22018498873002008710E21164862
:1012100041710F2201461548FEF7A6FF0120134930
:10122000C873FF2008744874FA2088741F20C8749B
:10123000F1200875AF20487516210C48FFF73CFED9
:1012400070BD00000D0A2052656769737465726590
:101250006446756E6374696F6E547970654D616E26
:1012600061676572200D0A007E0200207F01002068
:101270001446214629A000F001FB0420324988735E
:10128000002008710E21304841710F2201462F487D
:10129000FEF76AFF01202D49C873FF2008744874C7
:1012A000FA2088741F20C874F1200875AF20487593
:1012B00016212648FFF700FE4FF47A70FFF7B3FAC5
:1012C00000F05AFD6420FFF7AEFA00F0B3FD41F2E2
:1012D0008830FFF7A8FAFFF7F9FB4FF47A70FFF7B1
:1012E000A2FA4FF47A70FFF79EFAFFF7D1FB41F2B2
:1012F0008830FFF798FA012080F3138800BF00BF01
:101300001348006800F4E06012490843001D1049CA
:101310000860BFF34F8F00BF00BFFEE70D0A2052E9
:1013200065737461727444657669636546756E743D
:10133000696F6E547970654D616E616765722025C5
:1013400064200D0A000000007E0200207F010020C2
:101350000CED00E00000FA05704700000B49002288
:101360000A604A6002680A6042684A60FA21084AD4
:101370001170F12151701F219170AF21D170911D19
:1013800002680A6042684A6070470000420000201C
:101390007E02002018B10121034A117002E00021F1
:1013A000014A1170704700003500002010B500F0B0
:1013B00001F810BD0CB50020019000903348006882
:1013C00040F480303149086000BF3048006800F4C4
:1013D000003000900198401C0190009818B90198C5
:1013E000B0F5A06FF1D12948006800F4003010B1C9
:1013F0000120009001E0002000900098012843D1D6
:101400002348006840F01000214908600846006841
:1014100020F0030008600846006840F00200086001
:101420001A484068194948600846406848600846BC
:10143000406840F4806048600846406820F47C10B2
:1014400048600846406840F4E81048600846006874
:1014500040F08070086000BF0C48006800F0007029
:101460000028F9D00948406820F003000749486087
:101470000846406840F00200486000BF03484068EA
:1014800000F00C000828F9D10CBD0000001002404B
:1014900000200240012000F024FAFFF7CDFD0000FB
:1014A00070B504460D46164611A000F0E7F9A120DC
:1014B0001A498873002008710E21184841710F22C3
:1014C00001461748FEF750FE01201549C873FF205A
:1014D00008744874FA2088741F20C874F1200875B5
:1014E000AF20487516210E48FFF7E6FC70BD0000DE
:1014F0000D0A2053706F6E736F7252656769737453
:101500006572656446756E6374696F6E5479706553
:101510004D616E61676572200D0A00007E02002039
:101520007F01002008B501211020FFF7E9FD4FF4ED
:101530007070ADF8000010208DF8030003208DF8C6
:10154000020069460548FFF7DBF900F07FF900F07B
:101550008DF9FFF793FB00F06FF908BD0010014013
:1015600010B500F06FF810BD30B51A4800681A4A7F
:10157000B0FBF2F1B1F1807F01D301201DE021F039
:101580007F40401E4FF0E022506150170F2200288C
:1015900007DA13071D0E114B00F00F04241F1D5511
:1015A00003E013071C0E0E4B1C5400BF00204FF02D
:1015B000E022906107201061002008B100BFFEE723
:1015C0004FF0E020006920F001004FF0E0210861B9
:1015D00030BD00004C00002040420F0018ED00E03C
:1015E00000E400E010B51348006840F00100114924
:1015F000086008464068104908400E49486008469F
:1016000000680E4908400B4908600846006820F44D
:10161000802008600846406820F4FE0048604FF4CF
:101620001F008860FFF7C2FE4FF0006004490860A9
:1016300010BD0000001002400000FFF8FFFFF6FEA2
:1016400008ED00E00448006820B103480068401E2F
:1016500001490860704700003800002010B500F014
:1016600027FA10BD01F40072B2F5007F00D100BF6F
:10167000CA430280704721B1828942F400528281BC
:1016800004E082894DF6FF731A408281704702465A
:101690000020B1F5007F00D100BF13880B400BB1D3
:1016A000012000E00020704770B5024600240023AE
:1016B0000025002040F66A16B14200D100BFC1F3F8
:1016C000421501F01F03012606FA03F3012D02D192
:1016D0009689334006E0022D02D1168A334001E09C
:1016E000968A33400C12012606FA04F41688344018
:1016F00013B10CB1012000E0002070BDF0B503462D
:10170000002400260025002040F66A17B94200D1C7
:1017100000BF1846C1F3421401F01F06012707FA63
:1017200006F5012C01D10C3004E0022C01D110305F
:1017300000E014301AB107682F43076002E0076821
:10174000AF430760F0BD00002DE9F04786B00546C5
:101750000E460024A24600BFA1460027B08900B172
:1017600000BF2F462C8A4CF6FF700440F0880443DB
:101770002C82AC894EF6F3100440B08831890843BE
:10178000718908430443AC81AC8A4FF6FF400440A2
:10179000B0890443AC8201A8FFF7C2FC1F4887420E
:1017A00002D1DDF810A001E0DDF80CA0A88900F45A
:1017B000004040B10AEBCA0000EB0A103168490052
:1017C000B0FBF1F807E00AEBCA0000EB0A10316841
:1017D0008900B0FBF1F86420B8FBF0F004012009A7
:1017E000642101FB1089A88900F4004040B1322037
:1017F00000EBC900B0FBF1F000F00700044308E083
:10180000322000EB09106421B0FBF1F000F00F0072
:1018100004432C8106B0BDE8F08700000038014089
:1018200001468888C0F308007047C1F3080282802F
:10183000704700BFFEE7000010B54FF4807102480A
:10184000FFF7EBF810BD00000010014010B580213B
:101850000148FFF7E2F810BD0010014010B58021EB
:101860000148FFF7D8F810BD0010014010B5402125
:101870000148FFF7D2F810BD001001400FB4054B2E
:1018800010B503A9044A029800F030F810BC5DF8C6
:1018900014FB0000951B0008740000200FB4084BD7
:1018A00010B504A902AA039800F020F8044602A982
:1018B000002000F0F7F8204610BC5DF814FB000093
:1018C000A51A000802E008C8121F08C1002AFAD1B0
:1018D00070477047002001E001C1121F002AFBD1B0
:1018E000704700F0010181F3138870472DE9FF4F25
:1018F0008BB09A460F460546002606E025280BD0F9
:1019000052460D9990476D1C761C28780028F5D119
:101910000FB03046BDE8F08F0024A0460122604998
:1019200000E0044315F8013F203B02FA03F00842AF
:10193000F7D128782E2817D115F8010F44F00404A8
:101940002A280ED06FF02F022878A0F13001092943
:101950000AD808EB880102EB410100EB01086D1C7D
:10196000F2E757F8048B6D1C287869283ED006DC16
:101970000028CDD063280BD0642804D136E073282A
:1019800010D075284BD052460D999047761C85E0B3
:1019900017F8040B8DF8000000208DF80100E946CF
:1019A000012003E057F8049B4FF0FF3061074FF030
:1019B000000401D40AE0641C44450DDA8442FADBD9
:1019C00019F804100029F6D106E0641C8442FCDBFF
:1019D00019F804100029F8D1264404E019F8010B85
:1019E00052460D999047641EF8D257E001CF4FF050
:1019F0000A0B002802DA40422D2102E0210504D51D
:101A00002B218DF82410012103E0E10705D02021CE
:101A1000F7E70DF1200908910CE00021F9E701CF6B
:101A20004FF00A0BF9E75946FEF7C2FB01F130020D
:101A300009F8012D0028F6D1ADEB090000F1200BCB
:101A4000600701D44FF00108D84502DDA8EB0B0078
:101A500000E000208046002406E009A85246005D10
:101A60000D999047641C761C08988442F5DB04E0CD
:101A7000302052460D999047761CB8F10001A8F12C
:101A80000108F5DC05E019F8010B52460D99904765
:101A9000761CBBF10001ABF1010BF4DC6D1C34E7EB
:101AA000092801000A68531C0B6010707047000081
:101AB00010B525480078FF2844DA40F22551234824
:101AC000FFF7F2FD00283DD02048FFF7A9FE20498E
:101AD0001D4A127888541C480078401C1A49087026
:101AE0000846007821282DDB08460078001F184999
:101AF000085CFA2826D114480078C01E085C1F280C
:101B000020D111480078801E085CF1281AD10E48B7
:101B10000078401E085CAF2814D10B4801780C48AF
:101B2000FFF7C0F8012808D10AA0FFF7A7FE01209F
:101B3000FFF730FC00F01AF804E009A0FFF79EFE62
:101B400000F014F810BD00003600002000440040F2
:101B5000800000200D0A20D0A3D1E9B3C9B9A600A6
:101B60000D0A20D0A3D1E9B4EDCEF3004FF480707C
:101B70000021064A117005E00022411E89B2084684
:101B8000034B5A540028F7D170470000360000205C
:101B90008000002070B504460D46E1B20548FFF70D
:101BA00044FE00BF80210348FFF771FD0028F9D0F3
:101BB000204670BD0038014010B5002821D0114BDF
:101BC0000022001F196803E0814203D80A464968D1
:101BD0000029F9D152B11368841A9C4204D10068DB
:101BE00018441060104602E0506000E0186039B1FF
:101BF00002680B1A934203D10B681A4402604968C9
:101C0000416010BD7800002001460248007808704D
:101C100001487047360000208000002070B505465E
:101C20000C46164600BF00BFFFF7A0FF294607A0DD
:101C3000FEF79AFF00BF00BF0CB9002070BD304610
:101C4000FEF7F1FD204600F003F8F7E725730000EA
:101C5000F8B5054600BF00BF6846FFF7D5FF074649
:101C600000209DF80010785400BF00BF002400261B
:101C70000EE0285D08B90020F8BDA019385C295D88
:101C8000884202D1601CC4B202E0701CC6B20024BB
:101C9000A0199DF800108842EBDB285D08B90020F0
:101CA000EAE70120E8E7000010B500BF00BFFFF73A
:101CB0005DFF4FF4FA60FEF7B6FDC82219A11AA025
:101CC000FFF7ACFF08B1012010BDFFF74FFF4FF445
:101CD000FA60FEF7A8FDC82212A117A0FFF79EFF29
:101CE00008B10120F0E7FFF741FF4FF4FA60FEF77B
:101CF0009AFDC8220BA117A0FFF790FF08B10120A1
:101D0000E2E7FFF733FF4FF4FA60FEF78CFDC822DD
:101D100004A113A0FFF782FF08B10120D4E700203F
:101D2000D2E700004F4B000041542B4347434C4146
:101D300053533D2242220D0041542B434744434F0D
:101D40004E543D312C224950222C22434D4E4554B5
:101D5000220D000041542B43474154543D310D00A6
:101D600041542B434950435347503D312C22434D5E
:101D70004E4554220D00000010B500BF00BFFFF714
:101D8000F5FEC82204A105A0FFF748FF08B1012015
:101D900010BD0020FCE700004F4B000041542B43D6
:101DA0004950434C4F53453D310D000038B5044672
:101DB0001A200090002500BF00BFFFF7D7FE4FF4A8
:101DC000FA7215A115A0FFF729FFD0B9214616A078
:101DD000FEF7CAFEFFF7CAFE642200216846FFF73D
:101DE0001DFF08E0681CC0B20546C82800DD09E0F8
:101DF0006420FEF718FD0DA0FFF72AFF0028F1D19F
:101E000038BD00BF1B200090002211466846FFF736
:101E100005FF0120F4E700003E00000041542B4381
:101E2000495053454E440D002573000053454E4420
:101E3000204F4B0010B5002400BF00BFFFF796FEF7
:101E4000002211460AA0FFF7E9FE09E0601CC0B2BB
:101E50000446322801DD012010BDC820FEF7E3FC56
:101E600006A0FFF7F5FE0028F0D100BFF4E7000060
:101E700041542B434950534855540D004F4B0000DB
:101E8000F0B599B004460D461646002700BF00BFC6
:101E9000224616A16846FFF701FD642219A1684693
:101EA000FFF7BCFE10B1012019B0F0BDFFF75EFED8
:101EB00033462A4614A16846FFF7F0FC642200214D
:101EC0006846FFF7ABFE09E0781CC0B20746C82899
:101ED00001DD0120E8E76420FEF7A5FC12A0FFF772
:101EE000B7FE0028F0D100BFDEE7000041542B43CD
:101EF0004C504F52543D22544350222C22257322E1
:101F00000D0000004F4B000041542B4349505354E7
:101F10004152543D22544350222C222573222C221C
:101F20002573220D00000000434F4E4E45435420C0
:101F30004F4B000038B500BF00BFFFF717FEFEF79C
:101F4000CDFD64220FA110A0FFF768FE08B10120AB
:101F500038BD6846FFF758FE04469DF8000008B9F2
:101F60000120F5E70BA12046FEF710F908B100208B
:101F7000EEE70CA12046FEF709F908B10020E7E7DB
:101F80000120E5E74F4B000041542B43474D4D0DD9
:101F90000000000053494D434F4D5F47534D3930CA
:101FA0003041000053494D434F4D5F53494D383048
:101FB00030000000F0B503460D46164600272946BE
:101FC0000A2E03D0002008702846F0BD33B9302017
:101FD00001F8010B002008702846F6E7002B03DA11
:101FE0002D2001F8010B5B4242F210720DE093FBD1
:101FF000F2F404B937B104F1300001F8010B04FB2D
:10200000123301270A2092FBF0F2002AEFDC0020B5
:1020100008702846D9E7FEF7F3F8FEF7FDF8000050
:10202000F0B50B30154D20F007010024144A0FE0E5
:1020300003688B420BD38B4205D95E1A431847685D
:10204000C3E9006700E04368136002C004E0021DBA
:1020500010680028ECD12046002802D1286808B179
:102060000020F0BD064A07481060074A121A22F005
:102070000702C0E9002401202860D7E77C00002087
:102080007800002094020020900400200D0AC8F47B
:10209000C4A3BFE9CFECD3A6B2E2CAD4D2BBD6B1B7
:1020A000B2BBD5FDB3A3A3ACC7EBBCECB2E9C4A3F0
:1020B000BFE9B5C4C1ACBDD3BBF2CAC7B7F1D2D179
:1020C000BFAAC6F4B5E7D4B4BFAAB9D80D0A0000B8
:1020D0000D0A312EB1FCBBF047534DC4A3BFE954E8
:1020E0004350CAFDBEDDC9CFB4ABB9A6C4DCB2E271
:1020F000CAD4000014210008000000208000000065
:10210000C418000894210008800000201008000076
:10211000D4180008D0200008003132333435363767
:102120003825FAF11FAF001D3132333435363738D8
:10213000013139323136383030303030313838389A
:1021400038FFFFFA1FF1AF000000000000000000A0
:1021500000000000000031323334353637380000DB
:1021600000A24A0400000000000000000102030475
:10217000060708090000000001020304010203042D
:10218000060708090204060800000000000000001D
:04219000000000004B
:0400000508000131BD
:00000001FF
